:020000042000DA
:100000000000012099020020090300200B030020BA
:100010000D0300200F03002011030020000000004A
:10002000000000000000000000000000130300209A
:100030001503002000000000170300201903002012
:100040001B0300201D0300201F03002021030020AC
:10005000230300202503002027030020290300207C
:100060002B0300202D030020290B0020550B00201E
:10007000330300203503002037030020390300201C
:100080003B0300203D0300203F03002041030020EC
:1000900043030020450300204703002049030020BC
:1000A0004B030020000000000000000000000000E2
:1000B0000000000000000000000000004D030020D0
:1000C0004F0300205103002053030020550300205C
:1000D00057030020590300205B0300205D0300202C
:1000E0005F030020610300206303002065030020FC
:1000F00067030020690300206B0300206D030020CC
:100100006F0300207103002073030020750300209B
:1001100077030020790300207B0300207D0300206B
:100120007F0300208103002083030020850300203B
:1001300087030020890300208B0300208D0300200B
:100140008F030020910300209303002095030020DB
:1001500097030020990300209B0300209D030020AB
:100160009F030020A1030020A3030020A50300207B
:10017000A7030020A9030020AB030020AD0300204B
:10018000AF030020B1030020B3030020B50300201B
:10019000B7030020B9030020BB030020BD030020EB
:1001A000BF030020C1030020C3030020C5030020BB
:1001B000C7030020C9030020CB030020CD0300208B
:1001C000CF030020D1030020D3030020D50300205B
:1001D000D7030020D9030020DB030020DD0300202B
:1001E000DF030020E1030020E3030020E5030020FB
:1001F000E7030020E9030020EB030020ED030020CB
:10020000EF030020F1030020F3030020F50300209A
:10021000F7030020F9030020FB030020FD0300206A
:10022000FF03002001040020030400200504002037
:1002300007040020090400200B0400200D04002006
:100240000F040020110400201304002015040020D6
:1002500017040020190400201B0400201D040020A6
:100260001F04002021040020230400202504002076
:1002700027040020290400202B0400202D04002046
:100280002F04002031040020330400203504002016
:100290003704002039040020684880476848002857
:1002A0000BD168486849694A884206D091421CBF10
:1002B00050F8043B41F8043BF8D165486549664A6B
:1002C000884206D091421CBF50F8043B41F8043BE1
:1002D000F8D162486249634A914218BF41F8040B61
:1002E000FAD1000000000000000000000000000043
:1002F000DFF874010FF2030E00474FF000004FF0DB
:100300000001DFF868F1FEE7FEE7FEE7FEE7FEE743
:10031000FEE7FEE7FEE7FEE7FEE7FEE7FEE7FEE7B5
:10032000FEE7FEE7FEE7FEE7FEE7FEE7FEE7FEE7A5
:10033000FEE7FEE7FEE7FEE7FEE7FEE7FEE7FEE795
:10034000FEE7FEE7FEE7FEE7FEE7FEE7FEE7FEE785
:10035000FEE7FEE7FEE7FEE7FEE7FEE7FEE7FEE775
:10036000FEE7FEE7FEE7FEE7FEE7FEE7FEE7FEE765
:10037000FEE7FEE7FEE7FEE7FEE7FEE7FEE7FEE755
:10038000FEE7FEE7FEE7FEE7FEE7FEE7FEE7FEE745
:10039000FEE7FEE7FEE7FEE7FEE7FEE7FEE7FEE735
:1003A000FEE7FEE7FEE7FEE7FEE7FEE7FEE7FEE725
:1003B000FEE7FEE7FEE7FEE7FEE7FEE7FEE7FEE715
:1003C000FEE7FEE7FEE7FEE7FEE7FEE7FEE7FEE705
:1003D000FEE7FEE7FEE7FEE7FEE7FEE7FEE7FEE7F5
:1003E000FEE7FEE7FEE7FEE7FEE7FEE7FEE7FEE7E5
:1003F000FEE7FEE7FEE7FEE7FEE7FEE7FEE7FEE7D5
:10040000FEE7FEE7FEE7FEE7FEE7FEE7FEE7FEE7C4
:10041000FEE7FEE7FEE7FEE7FEE7FEE7FEE7FEE7B4
:10042000FEE7FEE7FEE7FEE7FEE7FEE7FEE7FEE7A4
:10043000FEE7FEE7FEE7FEE7FEE70000810B002097
:100440000000000000000020000000204C0E0020F2
:100450004C0E00204C0E0020680E00200000000012
:10046000680E0020C00E0020C50D0020A104002051
:1004700040F66863C2F200031A780AB901201870C6
:10048000704700BF40F64C60C2F2000008B5036838
:100490002BB140F20003C0F2000303B1984708BD3E
:1004A00080B584B000AF40F66C60C2F200004FF43B
:1004B000E1314FF0030200F043F840F61463C2F25A
:1004C000000307F1040293E8030082E8030007F148
:1004D000040340F66C60C2F2000019464FF00802B7
:1004E00000F030F93B4640F66C60C2F2000019465D
:1004F0004FF0020200F098F90346FB6007F1100785
:10050000BD4680BD80B483B000AF0346FB804EF291
:100510000013CEF20003B7F906204FEA5212F98811
:1005200001F01F014FF0010000FA01F102F1600239
:1005300043F8221007F10C07BD4680BC704700BF8E
:1005400080B588B000AFF860B9601346FB714FF01A
:100550000103FB824FF00003BB61FA6840F694632D
:10056000C2F200039A4207D0FA6840F66C63C2F206
:1005700000039A4200D000BEBB68002B00D100BE31
:1005800000F004FBFA6840F69463C2F200039A425A
:100590002ED1FB684FF080421A60FB684FF0844216
:1005A0005A60FB684FF00A021A8140F65863C2F2A3
:1005B00000031B68BB6142F20003CEF2040342F267
:1005C0000002CEF20402126B42F080021A634FF076
:1005D0000A00FFF797FF42F20003CEF2040342F253
:1005E0000002CEF20402126B22F080021A6331E0A4
:1005F000FA6840F20003C4F201031360FA6840F2A3
:100600000003C4F220235360FB684FF00B021A81F1
:1006100040F65C63C2F200031B68BB6142F2000358
:10062000CEF2040342F20002CEF20402126B42F454
:1006300080721A634FF00B00FFF764FF42F2000371
:10064000CEF2040342F20002CEF20402126B22F454
:1006500080721A63FB681B684FF000021A71BB6856
:10066000002B21D0BA69BB68B2FBF3F3FB61FB69D5
:1006700003F00803002B06D0FB694FEA131303F1C4
:100680000103FB6103E0FB694FEA1313FB61FA69A5
:100690004FF6FF739A4200D900BEFA694FF6FF7316
:1006A0009A4201D8FB69FB82FB685B684FF001024C
:1006B000C3F89C21FB681B68FA8A4FEA122292B2A7
:1006C000D2B21A71FB681B68FA8AD2B21A70FB6840
:1006D0005B684FF00002C3F89C21FB681B68FA7945
:1006E0001A73FB681B684FF00E021A72FB685B6896
:1006F0004FF00002C3F81022FB684FF000021A61AD
:10070000FB684FF00002DA60FB684FF000025A61AC
:10071000FB684FF00002DA61FA6840F62123C2F26A
:1007200000031362FB684FF000029A61FB684FF010
:1007300000025A62FB684FF000029A7207F120072C
:10074000BD4680BD80B489B000AFF860B9607A6002
:100750004FF000033B61FA6840F69463C2F2000375
:100760009A4207D0FA6840F66C63C2F200039A42DC
:1007700000D000BEBB68002B00D100BE7B68002B00
:1007800000D100BEFA6840F69463C2F200039A42B8
:1007900006D0FA6840F66C63C2F200039A423DD17B
:1007A000BB68002B3AD07B68002B37D0FB681B68F6
:1007B0001B7DFB76FB689A7AFB7E42EA0303DAB282
:1007C000FB689A72FB7E03F02003002B23D04FF0CE
:1007D0001003FB617B680F2B01D87B68FB614FF036
:1007E00000037B610EE0FB681B68B9683A690A4444
:1007F00012781A703B6903F101033B617B6903F1D5
:1008000001037B617A69FB699A42ECD37A687B6960
:10081000C3EB02037B607B68002BC7D107F1240781
:10082000BD4680BC704700BF80B487B000AFF860A1
:10083000B9607A604FF000033B614FF00003FB7535
:10084000FA6840F69463C2F200039A4207D0FA684D
:1008500040F66C63C2F200039A4200D000BEBB684F
:10086000002B00D100BE7B68002B00D100BEFA68CF
:1008700040F69463C2F200039A4206D0FA6840F64A
:100880006C63C2F200039A4234D1BB68002B31D0B2
:100890007B68002B2ED0FB681B681B7DFB75FB68FB
:1008A0009A7AFB7D42EA0303DAB2FB689A7217E098
:1008B000BA683B691344FA6812681278D2B21A70A7
:1008C0003B6903F101033B61FB681B681B7DFB7502
:1008D000FB689A7AFB7D42EA0303DAB2FB689A72FC
:1008E000FB7D03F00103DBB2002B03D03A697B6888
:1008F0009A42DDD33B69184607F11C07BD4680BC10
:10090000704700BF80B584B000AF78607A6840F669
:100910009463C2F200039A4207D07A6840F66C638F
:10092000C2F200039A4200D000BE7A6840F6946397
:10093000C2F200039A4206D07A6840F66C63C2F2B3
:1009400000039A4267D17B681B681B7ADBB203F015
:100950000F03FB73FB7B0C2B54D801A252F823F03E
:1009600095090020050A0020B1090020050A002091
:10097000CD090020050A0020E9090020050A002011
:10098000050A0020050A0020050A0020050A0020AB
:10099000CD0900207B685B6A002B00D100BE7B681C
:1009A0005B6A002B30D07B685B6A7868984732E0DE
:1009B0007B681B6A002B00D100BE7B681B6A002B82
:1009C00024D07B681B6A7868984724E07B68DB69E1
:1009D000002B00D100BE7B68DB69002B18D07B6840
:1009E000DB697868984716E07B689B69002B00D12B
:1009F00000BE7B689B69002B0CD07B689B69786884
:100A0000984708E000BE06E000BF04E000BF02E037
:100A100000BF00E000BF07F11007BD4680BD00BF6A
:100A200080B487B000AF78607A6840F69463C2F211
:100A300000039A4207D07A6840F66C63C2F2000362
:100A40009A4200D000BE7B68DB68002B00D100BE5C
:100A50007B681B69002B00D100BE7A6840F6946366
:100A6000C2F200039A4206D07A6840F66C63C2F282
:100A700000039A4252D17B68DB68002B4ED07B6822
:100A80001B69002B4AD07B681B681B7DFB727B684F
:100A90009A7AFB7A42EA0303DAB27B689A72FB7AAB
:100AA00003F02003002B29D04FF010033B617B683B
:100AB0001A697B685B69C3EB02037B617B690F2B5F
:100AC00001D87B693B614FF00003FB6012E07B685B
:100AD0001B687A68D1687A6852690A4412781A7079
:100AE0007B685B6903F101027B685A61FB6803F173
:100AF0000103FB60FA683B699A42E8D37B685A6954
:100B00007B681B699A4209D17B684FF000021A6129
:100B10007B685B684FF00002C3F8842007F11C0774
:100B2000BD4680BC704700BF684620F007018D4677
:100B300089B500AF40F69460C2F20000FFF7E2FE14
:100B40004FF00A00FFF7DEFCBD46BDE88940854650
:100B5000704700BF684620F007018D4689B500AF99
:100B600040F66C60C2F20000FFF7CCFE4FF00B00C5
:100B7000FFF7C8FCBD46BDE889408546704700BF09
:100B800080B400AFBD4680BC704700BF80B58AB05E
:100B900000AF40F61C63C2F20003BC460FCB8CE8EA
:100BA0000F0042F20003CEF204039B6C4FEA930362
:100BB00003F003034FEA830307F12802134453F8B9
:100BC000283C3B6142F20003CEF204039B6C4FEAE7
:100BD000131303F003034FEA830307F128021344BE
:100BE00053F8283C7B6142F20003CEF204039B6C75
:100BF0004FEA931303F003034FEA830307F128023C
:100C0000134453F8283CBB6142F20003CEF20403C4
:100C1000DB6C4FEA132303F01F033B6242F2000335
:100C2000CEF20403DB6C4FEA533303F001037B6223
:100C30003B6A03F10103FB617B6A002B03D0FB6974
:100C40004FEA4303FB6100F049F8024640F6546363
:100C5000C2F200031A6040F65463C2F200031A683D
:100C60003B69B2FBF3F240F65863C2F200031A602C
:100C700040F65463C2F200031A687B69B2FBF3F2D8
:100C800040F65C63C2F200031A6040F65463C2F29D
:100C900000031A68BB69B2FBF3F240F66063C2F26C
:100CA00000031A6040F65463C2F200031A68FB693D
:100CB000B2FBF3F240F66463C2F200031A6040F63E
:100CC0005463C2F200031A6840F65063C2F2000394
:100CD0001A6007F12807BD4680BD00BF80B48BB005
:100CE00000AF4FF000037B6040F61C03C6F2080320
:100CF000BB6040F23023C6F20803FB60FB681B6850
:100D000023F070433B613A6941F2CF13C0F2A15323
:100D10009A4208D14EF62C73C6F201037B617B69BF
:100D20001B687B603DE0BB681A6844F24133C4F63F
:100D300054439A4235D140F64003C6F20803BB61E2
:100D4000BB691B68FB61FB6923F07F43FB61FA69A8
:100D500040F20033C0F201039A4222D9FA694FF6F9
:100D6000FF73C0F201039A4208D841F22C63C6F225
:100D700008033B623B6A1B687B6012E0FA694FF62E
:100D8000FF73C0F202039A4208D841F6AC63C6F280
:100D900008037B627B6A1B687B6002E04FF0000304
:100DA0007B607B68002B05D100BE47F64003C0F294
:100DB0007D137B607B68184607F12C07BD4680BC1D
:100DC000704700BF70B540F6446640F64465C2F215
:100DD0000006C2F20005761BB61006D0002455F8B6
:100DE000243001349847A642F9D840F6446540F6CD
:100DF0004866C2F20005C2F20006761B00F016F843
:100E0000B61006D0002455F8243001349847A64285
:100E1000F9D870BD42570200000001060100000031
:100E2000020000000400000001000000F8B500BF4F
:100E3000F8BC08BC9E467047F8B500BFF8BC08BCBB
:0C0E40009E4670478504002071040020CD
:100E4C000000000040787D0140787D01105E5F005D
:0C0E5C00105E5F00105E5F00105E5F0023
:04000005200002993C
:00000001FF
