:020000042000DA
:100000000000012099020020090300200B030020BA
:100010000D0300200F03002011030020000000004A
:10002000000000000000000000000000130300209A
:100030001503002000000000170300201903002012
:100040001B0300201D0300201F03002021030020AC
:10005000230300202503002027030020290300207C
:100060002B0300202D030020F11000201D11002083
:100070003303002035030020F11E00203903002047
:100080003B0300201D1F00203F03002041030020F0
:1000900043030020450300204703002049030020BC
:1000A0004B030020000000000000000000000000E2
:1000B0000000000000000000000000004D030020D0
:1000C0004F0300205103002053030020550300205C
:1000D00057030020590300205B0300205D0300202C
:1000E0005F030020610300206303002065030020FC
:1000F00067030020690300206B0300206D030020CC
:100100006F0300207103002073030020750300209B
:1001100077030020790300207B0300207D0300206B
:100120007F0300208103002083030020850300203B
:1001300087030020890300208B0300208D0300200B
:100140008F030020910300209303002095030020DB
:1001500097030020990300209B0300209D030020AB
:100160009F030020A1030020A3030020A50300207B
:10017000A7030020A9030020AB030020AD0300204B
:10018000AF030020B1030020B3030020B50300201B
:10019000B7030020B9030020BB030020BD030020EB
:1001A000BF030020C1030020C3030020C5030020BB
:1001B000C7030020C9030020CB030020CD0300208B
:1001C000CF030020D1030020D3030020D50300205B
:1001D000D7030020D9030020DB030020DD0300202B
:1001E000DF030020E1030020E3030020E5030020FB
:1001F000E7030020E9030020EB030020ED030020CB
:10020000EF030020F1030020F3030020F50300209A
:10021000F7030020F9030020FB030020FD0300206A
:10022000FF03002001040020030400200504002037
:1002300007040020090400200B0400200D04002006
:100240000F040020110400201304002015040020D6
:1002500017040020190400201B0400201D040020A6
:100260001F04002021040020230400202504002076
:1002700027040020290400202B0400202D04002046
:100280002F04002031040020330400203504002016
:100290003704002039040020684880476848002857
:1002A0000BD168486849694A884206D091421CBF10
:1002B00050F8043B41F8043BF8D165486549664A6B
:1002C000884206D091421CBF50F8043B41F8043BE1
:1002D000F8D162486249634A914218BF41F8040B61
:1002E000FAD1000000000000000000000000000043
:1002F000DFF874010FF2030E00474FF000004FF0DB
:100300000001DFF868F1FEE7FEE7FEE7FEE7FEE743
:10031000FEE7FEE7FEE7FEE7FEE7FEE7FEE7FEE7B5
:10032000FEE7FEE7FEE7FEE7FEE7FEE7FEE7FEE7A5
:10033000FEE7FEE7FEE7FEE7FEE7FEE7FEE7FEE795
:10034000FEE7FEE7FEE7FEE7FEE7FEE7FEE7FEE785
:10035000FEE7FEE7FEE7FEE7FEE7FEE7FEE7FEE775
:10036000FEE7FEE7FEE7FEE7FEE7FEE7FEE7FEE765
:10037000FEE7FEE7FEE7FEE7FEE7FEE7FEE7FEE755
:10038000FEE7FEE7FEE7FEE7FEE7FEE7FEE7FEE745
:10039000FEE7FEE7FEE7FEE7FEE7FEE7FEE7FEE735
:1003A000FEE7FEE7FEE7FEE7FEE7FEE7FEE7FEE725
:1003B000FEE7FEE7FEE7FEE7FEE7FEE7FEE7FEE715
:1003C000FEE7FEE7FEE7FEE7FEE7FEE7FEE7FEE705
:1003D000FEE7FEE7FEE7FEE7FEE7FEE7FEE7FEE7F5
:1003E000FEE7FEE7FEE7FEE7FEE7FEE7FEE7FEE7E5
:1003F000FEE7FEE7FEE7FEE7FEE7FEE7FEE7FEE7D5
:10040000FEE7FEE7FEE7FEE7FEE7FEE7FEE7FEE7C4
:10041000FEE7FEE7FEE7FEE7FEE7FEE7FEE7FEE7B4
:10042000FEE7FEE7FEE7FEE7FEE7FEE7FEE7FEE7A4
:10043000FEE7FEE7FEE7FEE7FEE70000811F002083
:10044000000000000000002000000020F0640020F8
:10045000F0640020F0640020146A00200000000016
:10046000146A0020906B0020152B0020E50400206A
:1004700046F61423C2F200031A780AB90120187054
:10048000704700BF46F2F040C2F2000008B50368B2
:100490002BB140F20003C0F2000303B1984708BD3E
:1004A00080B582B000AF7860786801F0DDFF024669
:1004B0000B461046194605F0EBFC02460B4610466B
:1004C00019464FF000024FF0804303F5781301F016
:1004D0007FFE02460B461046194607F10807BD4647
:1004E00080BD00BFF0B585B000AF00F0B7F903469E
:1004F0003B603B68B3F1FF3F0FD146F20C30C2F2D4
:1005000000004FF0110146F21C32C2F2000246F226
:100510001833C2F2000302F0A7FA4FF005037B6024
:100520004FF00203BB604FF0FF33FB6023E03868FD
:1005300001F09AFF04460D46B868FFF7B1FF024686
:100540000B464FF000010E462046294602F064FAA1
:100550000346002B02D04FF001031E46F3B2002BDE
:1005600001D07B68FB607B6803F1FF337B60BB6875
:1005700003F10103BB607B68002B03DBFB68B3F175
:10058000FF3FD4D0FB68B3F1FF3F06D14FF001032A
:10059000184607F11407BD46F0BD46F61430C2F206
:1005A00000004FF05A014FF0000200F025FE00F06D
:1005B000BDF84FF0010000F027F94FF0000000F007
:1005C0003DF9FB68DBB2C3F14503DBB24FF000003D
:1005D000194600F005F94FF001004FF0000100F05E
:1005E000FFF800F021F980E780B586B002AF03463E
:1005F000FB7107F107034FF00002009246F614303A
:10060000C2F200004FF05A011A464FF0010300F009
:10061000A9FE46F61430C2F200004FF0000100F0CF
:1006200095FF0346FB73FB7B002B0FD046F2243073
:10063000C2F200004FF01D0146F25432C2F2000235
:1006400046F23833C2F2000302F00EFA07F10C034F
:100650004FF00002009246F61430C2F200004FF054
:100660005A011A464FF0010300F0F6FE46F6143028
:10067000C2F200004FF0000100F068FF0346FB7378
:10068000FB7B002B0FD046F22430C2F200004FF06B
:10069000210146F25432C2F2000246F23833C2F26D
:1006A000000302F0E1F93B7B184607F11007BD4655
:1006B00080BD00BF80B586B002AF02460B46FA711E
:1006C000BB71FB793B73BB797B7307F10C034FF074
:1006D0000002009246F61430C2F200004FF05A01B8
:1006E0001A464FF0020300F03DFE46F61430C2F207
:1006F00000004FF0000100F029FF0346FB73FB7B75
:10070000002B0FD046F22430C2F200004FF02B0134
:1007100046F24432C2F2000246F23833C2F200031B
:1007200002F0A2F907F11007BD4680BD80B582B086
:1007300000AF4FF001004FF00001FFF7BBFF4FF09B
:1007400002004FF00001FFF7B5FF4FF004004FF03B
:100750000101FFF7AFFF4FF005004FF00001FFF779
:10076000A9FF4FF00D004FF00001FFF7A3FF4FF07E
:100770000E004FF00001FFF79DFF4FF00F004FF00C
:100780000001FFF797FF4FF010004FF00001FFF757
:1007900091FF4FF013004FF06401FFF78BFF4FF014
:1007A0001A00FFF721FF034603F07F034FF01A0002
:1007B0001946FFF77FFF4FF01D00FFF715FF0346B7
:1007C00043F02003FB71FB794FF01D001946FFF742
:1007D00071FF4FF00103184607F10807BD4680BDC1
:1007E00080B582B000AF02460B46FA71BB71FB794F
:1007F00003F10403DAB2BB7910461946FFF75AFF3A
:1008000007F10807BD4680BD80B582B000AF034642
:10081000FB71FB794FF003001946FFF74BFF07F11F
:100820000807BD4680BD00BF80B500AF4FF00C008B
:100830004FF00101FFF73EFF80BD00BF80B582B0E1
:1008400000AF0346FB71FB794FF001001946FFF73B
:1008500031FF07F10807BD4680BD00BF80B58AB0F3
:1008600000AF4FF000037B614FF00003BB6146F621
:100870005020C2F200004FF4E1314FF0030200F0CB
:1008800043F946F26433C2F2000307F10C0293E825
:10089000030082E803004FF00003FB614CE03B469D
:1008A00046F65020C2F2000019464FF0090200F04F
:1008B0009FFA0346002BF2D107F10C0346F65020B5
:1008C000C2F2000019464FF0080200F01FFA3B4642
:1008D00046F65020C2F2000019464FF0090200F01F
:1008E00087FA03463B623B7887F824307B7887F8A9
:1008F000253097F82430592B03D197F82530592B00
:1009000004D0FB6903F10103FB6115E0FB784FEABA
:1009100003239AB2BB781344FB84FB8CB3F57A7F34
:1009200008D97B6903F101037B61BB6903F1010312
:10093000BB6101E0FB8C04E0FB69632BAFDD4FF092
:10094000FF33184607F12807BD4680BD80B483B049
:1009500000AF78604FF0FF33184607F10C07BD4633
:1009600080BC704780B483B000AF7860FEE700BF02
:1009700080B483B000AF786039603B684FF40052B8
:100980005A604FF00003184607F10C07BD4680BCC3
:10099000704700BF80B400AF4FF001031846BD465A
:1009A00080BC704780B483B000AF78604FF0010323
:1009B000184607F10C07BD4680BC704780B582B071
:1009C00000AF7860396002F079F803464FF0160204
:1009D0001A604FF0FF33184607F10807BD4680BD87
:1009E00080B485B000AFF860B9607A604FF0000362
:1009F000184607F11407BD4680BC704780B485B027
:100A000000AFF860B9607A604FF00003184607F154
:100A10001407BD4680BC704780B485B000AFF86055
:100A2000B9607A603B604FF00003184607F1140785
:100A3000BD4680BC704700BF80B584B000AF786011
:100A400046F61823C2F200031B68002B08D146F6B5
:100A50001823C2F2000346F69032C2F200021A6076
:100A600046F61823C2F200031B68BB60EFF308834D
:100A7000FB6046F61823C2F200031A687B681A442A
:100A8000FB689A420FD94FF000004FF0010146F287
:100A90006C32C2F200024FF01903FFF7BDFF4FF0B6
:100AA0000100FFF75FFF46F61823C2F200031A6841
:100AB0007B681A4446F61823C2F200031A60BB682A
:100AC000184607F11007BD4680BD00BF80B483B053
:100AD00000AF0346FB804EF20013CEF20003B7F9DD
:100AE00006204FEA5212F98801F01F014FF0010071
:100AF00000FA01F102F1600243F8221007F10C073D
:100B0000BD4680BC704700BF80B588B000AFF860BC
:100B1000B9601346FB714FF00103FB824FF00003F5
:100B2000BB61FA6846F67823C2F200039A4207D006
:100B3000FA6846F65023C2F200039A4200D000BE83
:100B4000BB68002B00D100BE01F020FAFA6846F61F
:100B50007823C2F200039A422ED1FB684FF0804204
:100B60001A60FB684FF084425A60FB684FF00A023B
:100B70001A8146F2FC43C2F200031B68BB6142F2D9
:100B80000003CEF2040342F20002CEF20402126B22
:100B900042F080021A634FF00A00FFF797FF42F21B
:100BA0000003CEF2040342F20002CEF20402126B02
:100BB00022F080021A6331E0FA6840F20003C4F2C6
:100BC00001031360FA6840F20003C4F2202353606B
:100BD000FB684FF00B021A8146F20053C2F2000389
:100BE0001B68BB6142F20003CEF2040342F2000232
:100BF000CEF20402126B42F480721A634FF00B00C3
:100C0000FFF764FF42F20003CEF2040342F2000257
:100C1000CEF20402126B22F480721A63FB681B6826
:100C20004FF000021A71BB68002B21D0BA69BB6873
:100C3000B2FBF3F3FB61FB6903F00803002B06D062
:100C4000FB694FEA131303F10103FB6103E0FB6946
:100C50004FEA1313FB61FA694FF6FF739A4200D90A
:100C600000BEFA694FF6FF739A4201D8FB69FB8216
:100C7000FB685B684FF00102C3F89C21FB681B68AE
:100C8000FA8A4FEA122292B2D2B21A71FB681B683A
:100C9000FA8AD2B21A70FB685B684FF00002C3F8A0
:100CA0009C21FB681B68FA791A73FB681B684FF07C
:100CB0000E021A72FB685B684FF00002C3F8102244
:100CC000FB684FF000021A61FB684FF00002DA6027
:100CD000FB684FF000025A61FB684FF00002DA61D6
:100CE000FA6840F6E973C2F200031362FB684FF042
:100CF00000029A61FB684FF000025A62FB684FF0F5
:100D000000029A7207F12007BD4680BD80B489B009
:100D100000AFF860B9607A604FF000033B61FA6899
:100D200046F67823C2F200039A4207D0FA6846F6E4
:100D30005023C2F200039A4200D000BEBB68002BD1
:100D400000D100BE7B68002B00D100BEFA6846F6D9
:100D50007823C2F200039A4206D0FA6846F650237E
:100D6000C2F200039A423DD1BB68002B3AD07B68A7
:100D7000002B37D0FB681B681B7DFB76FB689A7ADB
:100D8000FB7E42EA0303DAB2FB689A72FB7E03F051
:100D90002003002B23D04FF01003FB617B680F2B47
:100DA00001D87B68FB614FF000037B610EE0FB68BC
:100DB0001B68B9683A690A4412781A703B6903F1F2
:100DC00001033B617B6903F101037B617A69FB6984
:100DD0009A42ECD37A687B69C3EB02037B607B6841
:100DE000002BC7D107F12407BD4680BC704700BF68
:100DF00080B487B000AFF860B9607A604FF000034C
:100E00003B614FF00003FB75FA6846F67823C2F2A7
:100E100000039A4207D0FA6846F65023C2F2000354
:100E20009A4200D000BEBB68002B00D100BE7B6898
:100E3000002B00D100BEFA6846F67823C2F2000308
:100E40009A4206D0FA6846F65023C2F200039A424C
:100E500034D1BB68002B31D07B68002B2ED0FB68CF
:100E60001B681B7DFB75FB689A7AFB7D42EA0303D6
:100E7000DAB2FB689A7217E0BA683B691344FA6801
:100E800012681278D2B21A703B6903F101033B6118
:100E9000FB681B681B7DFB75FB689A7AFB7D42EA49
:100EA0000303DAB2FB689A72FB7D03F00103DBB245
:100EB000002B03D03A697B689A42DDD33B69184620
:100EC00007F11C07BD4680BC704700BF80B584B0E9
:100ED00000AF78607A6846F67823C2F200039A423F
:100EE00007D07A6846F65023C2F200039A4200D037
:100EF00000BE7A6846F67823C2F200039A4206D012
:100F00007A6846F65023C2F200039A4267D17B68A2
:100F10001B681B7ADBB203F00F03FB73FB7B0C2B0C
:100F200054D801A252F823F05D0F0020CD0F00200D
:100F3000790F0020CD0F0020950F0020CD0F00204D
:100F4000B10F0020CD0F0020CD0F0020CD0F0020CD
:100F5000CD0F0020CD0F0020950F00207B685B6A2D
:100F6000002B00D100BE7B685B6A002B30D07B6811
:100F70005B6A7868984732E07B681B6A002B00D177
:100F800000BE7B681B6A002B24D07B681B6A7868D4
:100F9000984724E07B68DB69002B00D100BE7B68AA
:100FA000DB69002B18D07B68DB697868984716E00E
:100FB0007B689B69002B00D100BE7B689B69002B7E
:100FC0000CD07B689B697868984708E000BE06E013
:100FD00000BF04E000BF02E000BF00E000BF07F177
:100FE0001007BD4680BD00BF80B487B000AF7860F9
:100FF0007A6846F67823C2F200039A4207D07A68EC
:1010000046F65023C2F200039A4200D000BE7B682D
:10101000DB68002B00D100BE7B681B69002B00D170
:1010200000BE7A6846F67823C2F200039A4206D0E0
:101030007A6846F65023C2F200039A4252D17B6886
:10104000DB68002B4ED07B681B69002B4AD07B6885
:101050001B681B7DFB727B689A7AFB7A42EA03036A
:10106000DAB27B689A72FB7A03F02003002B29D056
:101070004FF010033B617B681A697B685B69C3EBC7
:1010800002037B617B690F2B01D87B693B614FF0C9
:101090000003FB6012E07B681B687A68D1687A689D
:1010A00052690A4412781A707B685B6903F1010285
:1010B0007B685A61FB6803F10103FB60FA683B69D6
:1010C0009A42E8D37B685A697B681B699A4209D1C6
:1010D0007B684FF000021A617B685B684FF000028A
:1010E000C3F8842007F11C07BD4680BC704700BFD1
:1010F000684620F007018D4689B500AF46F6782096
:10110000C2F20000FFF7E2FE4FF00A00FFF7DEFC3C
:10111000BD46BDE889408546704700BF684620F05F
:1011200007018D4689B500AF46F65020C2F2000097
:10113000FFF7CCFE4FF00B00FFF7C8FCBD46BDE843
:1011400089408546704700BF80B483B000AF034636
:10115000FB804EF20013CEF20003B7F906204FEAEF
:101160005212F98801F01F014FF0010000FA01F15D
:1011700043F8221007F10C07BD4680BC704700BF42
:1011800080B483B000AF0346FB804EF20013CEF272
:101190000003B7F906204FEA5212F98801F01F0147
:1011A0004FF0010000FA01F102F1200243F8221091
:1011B00007F10C07BD4680BC704700BF80B483B008
:1011C00000AF0346FB804EF20013CEF20003B7F9E6
:1011D00006204FEA5212F98801F01F014FF001007A
:1011E00000FA01F102F1600243F8221007F10C0746
:1011F000BD4680BC704700BF80B584B000AF78604A
:1012000013460A46FA70BB70BB78FB607A6846F6F4
:10121000A023C2F200039A4207D07A6846F614333C
:10122000C2F200039A4200D000BE00F043FE034623
:10123000BB6078684FF000014FF0740201F092FC3F
:101240007A6846F6A023C2F200039A422CD17B684A
:101250004FF00E025A827A6842F20003C4F2000391
:1012600053617A6840F20003C4F20423936142F2AE
:101270000003CEF2040342F20002CEF20402126B2B
:1012800042F400621A634FF00E00FFF797FF42F23C
:101290000003CEF2040342F20002CEF20402126B0B
:1012A00022F400621A632BE07B684FF011025A822D
:1012B0007A6842F20003C4F2010353617A6840F293
:1012C0000003C4F22423936142F20003CEF204032C
:1012D00042F20002CEF20402126B42F480521A6310
:1012E0004FF01100FFF76AFF42F20003CEF2040351
:1012F00042F20002CEF20402126B22F480521A6310
:101300007B689B691A467B68DA61FB784FEA430287
:101310007B681A607B689B69FA684FEA920202F068
:101320000102DA617B689B69FA684FEA520202F0B7
:1013300001025A607B689B69FA6802F001021A6038
:101340007B685B697A681268D2B21A737B689B69A2
:101350004FF001029A61B86800F0BEFD07F1100776
:10136000BD4680BD80B586B000AFF8607A600A46A1
:10137000FA727B80FA6846F6A023C2F200039A4212
:1013800007D0FA6846F61433C2F200039A4200D03E
:1013900000BE00F08FFD03467B61FB681B7A002BCB
:1013A00003D1FB684FF001021A72FB684FF0010293
:1013B00083F87220FB7A4FEA4302FB685A60FB68AD
:1013C0004FF00002DA62FB687A681A627A88FB687A
:1013D0005A62FB684FF000029A62FB684FF001020C
:1013E00083F83C20FB6897F820201A74FB6893F878
:1013F0005C30DBB2012B05D1FB684FF0010283F8B2
:10140000712004E0FB689B694FF001025A61FB68A0
:1014100093F87030012B11D1FB689B694FF00002EB
:10142000DA60FB685B691B79FB74FB7CDBB2FB74E5
:10143000FB685B8A1BB21846FFF7C0FEFB685B8A3D
:101440001BB21846FFF780FE786900F045FD07F1F2
:101450001807BD4680BD00BF80B586B000AFF860FC
:101460007A600A46FA727B80FA6846F6A023C2F2D6
:1014700000039A4207D0FA6846F61433C2F200031A
:101480009A4200D000BE00F015FD03467B61FB6868
:101490001B7A002B03D1FB684FF002021A72FB6823
:1014A0004FF0020283F87220FB7A4FEA4302FB6896
:1014B0005A60FB684FF00102DA62FB687A681A63CF
:1014C0007A88FB685A63FB684FF000029A63FB68F6
:1014D0004FF0010283F83C20FB6897F820201A7433
:1014E000FB6893F85C30DBB2012B05D1FB684FF051
:1014F000010283F8712004E0FB689B694FF0010250
:101500005A61FB6893F87030012B11D1FB689B691D
:101510004FF00002DA60FB685B691B79FB74FB7CAF
:10152000DBB2FB74FB685B8A1BB21846FFF746FE12
:10153000FB685B8A1BB21846FFF706FE786900F06D
:10154000CBFC07F11807BD4680BD00BF80B485B055
:1015500000AF786039607A6846F6A023C2F20003D3
:101560009A4207D07A6846F61433C2F200039A42D0
:1015700000D000BE7B683A681A647B6893F83C3000
:10158000FB73FB7B012BF8D0FB7B184607F114079C
:10159000BD4680BC704700BF80B483B000AF7860A8
:1015A0007B6893F86830002B04D07B689B694FF010
:1015B00001029A6007F10C07BD4680BC704700BF6E
:1015C00080B584B000AF78604FF00103BB737A68D8
:1015D00046F6A023C2F200039A4207D07A6846F684
:1015E0001433C2F200039A4200D000BE7B685B69EC
:1015F0001B79FB72FB7ADBB2A3F10803D02B00F25C
:101600001C8401A252F823F04D1900203B1E00203B
:101610003B1E00203B1E00203B1E00203B1E0020E6
:101620003B1E00203B1E00204D1900203B1E0020C9
:101630003B1E00203B1E00203B1E00203B1E0020C6
:101640003B1E00203B1E0020F11900203B1E002005
:101650003B1E00203B1E00203B1E00203B1E0020A6
:101660003B1E00203B1E0020CD1900203B1E002009
:101670003B1E00203B1E00203B1E00203B1E002086
:101680003B1E00203B1E0020F11900203B1E0020C5
:101690003B1E00203B1E00203B1E00203B1E002066
:1016A0003B1E00203B1E0020851A00203B1E002010
:1016B0003B1E00203B1E00203B1E00203B1E002046
:1016C0003B1E00203B1E0020C11900203B1E0020B5
:1016D0003B1E00203B1E00203B1E00203B1E002026
:1016E0003B1E00203B1E0020A91A00203B1E0020AC
:1016F0003B1E00203B1E00203B1E00203B1E002006
:101700003B1E00203B1E0020F91A00203B1E00203B
:101710003B1E00203B1E00203B1E00203B1E0020E5
:101720003B1E00203B1E00201D1B00203B1E0020F6
:101730003B1E00203B1E00203B1E00203B1E0020C5
:101740003B1E00203B1E0020571B00203B1E00209C
:101750003B1E00203B1E00203B1E00203B1E0020A5
:101760003B1E00203B1E0020F91B00203B1E0020DA
:101770003B1E00203B1E00203B1E00203B1E002085
:101780003B1E00203B1E0020EF1B00203B1E0020C4
:101790003B1E00203B1E00203B1E00203B1E002065
:1017A0003B1E00203B1E0020F91B00203B1E00209A
:1017B0003B1E00203B1E00203B1E00203B1E002045
:1017C0003B1E00203B1E0020EF1B00203B1E002084
:1017D0003B1E00203B1E00203B1E00203B1E002025
:1017E0003B1E00203B1E00203B1C00203B1E002017
:1017F0003B1E00203B1E00203B1E00203B1E002005
:101800003B1E00203B1E0020BB1B00203B1E002077
:101810003B1E00203B1E00203B1E00203B1E0020E4
:101820003B1E00203B1E00203B1C00203B1E0020D6
:101830003B1E00203B1E00203B1E00203B1E0020C4
:101840003B1E00203B1E0020BB1B00203B1E002037
:101850003B1E00203B1E00203B1E00203B1E0020A4
:101860003B1E00203B1E0020971C00203B1E00203A
:101870003B1E00203B1E00203B1E00203B1E002084
:101880003B1E00203B1E00206F1D00203B1E002041
:101890003B1E00203B1E00203B1E00203B1E002064
:1018A0003B1E00203B1E00206F1D00203B1E002021
:1018B0003B1E00203B1E00203B1E00203B1E002044
:1018C0003B1E00203B1E00206F1D00203B1E002001
:1018D0003B1E00203B1E00203B1E00203B1E002024
:1018E0003B1E00203B1E0020011E00203B1E00204E
:1018F0003B1E00203B1E00203B1E00203B1E002004
:101900003B1E00203B1E0020011E00203B1E00202D
:101910003B1E00203B1E00203B1E00203B1E0020E3
:101920003B1E00203B1E00203B1E00203B1E0020D3
:101930003B1E00203B1E00203B1E00203B1E0020C3
:101940003B1E00203B1E0020411D00207B689B6940
:101950004FF000025A617B685B697A685268D2B2C4
:101960001A727B689B697A68D26AC3F800217B6827
:10197000DB6A002B04D17B684FF000029A6207E01B
:101980007B68DB6A012B03D17B684FF000029A630E
:101990007B6893F87130002B04D07B684FF0000215
:1019A00083F871207B681A7A7B6893F872309A42C8
:1019B00000F067827B6893F872207B681A7269E294
:1019C0007B689B694FF001025A6163E27B689B6907
:1019D0004FF001021A617B684FF0020283F83C204D
:1019E0007B684FF000021A727868FFF7D5FD51E26C
:1019F0007B689A6A7B685B6A9A420DD27B685A69F7
:101A00007B68196A7B689B6A19440978117203F133
:101A100001027B689A623DE27B681B7A032B09D145
:101A20007B684FF00102DA627B689B694FF001022C
:101A30005A612FE27B684FF000021A727B681B7CB0
:101A400003F001037B737B687A7B83F870207B7BD8
:101A5000002B08D17B689B694FF001021A617868FE
:101A6000FFF79AFD08E07B685B8A1BB21846FFF718
:101A700087FB4FF00003BB737B684FF0000283F8D5
:101A80003C2007E27B689B694FF001021A617B688A
:101A90004FF0020283F83C207B684FF000021A727C
:101AA0007868FFF779FDF5E17B685B6B012B05D961
:101AB0007B689B694FF001029A60EBE17B685B6B8E
:101AC000012B05D17B689B694FF000029A60E1E130
:101AD0007B689B694FF001029A607B689B694FF0BD
:101AE00001021A617B684FF0000283F83C207B689A
:101AF0004FF000021A72CDE17B689B694FF0010242
:101B00001A617B684FF0020283F83C207B684FF03B
:101B100000021A727868FFF73FFDBBE17B681A6B21
:101B20007B689B6B1A4479684969097AC9B211705C
:101B300003F101027B689A637B689A6B7B685B6B3D
:101B400003F1FF339A42C0F09E817B689B694FF09E
:101B500000029A609EE17B681A6B7B689B6B134462
:101B60007A685269127AD2B21A707B681B7C03F0D1
:101B700001037B737B687A7B83F870207B7B002B6F
:101B800008D17B689B694FF001021A617868FFF702
:101B900003FD08E07B685B8A1BB21846FFF7F0FA8A
:101BA0004FF00003BB737B684FF000021A727B6832
:101BB0004FF0000283F83C206CE17B689B694FF09A
:101BC00001029A607B684FF000021A727B684FF046
:101BD000000283F85C207B6893F87130002B00F0E2
:101BE00054817B689B694FF001025A6152E17B6826
:101BF0004FF0010283F871207B684FF004021A72E3
:101C00007B684FF000029A657B684FF00002DA6053
:101C10007B689B695B69002B09D07B689B694FF0EF
:101C200000025A617B684FF0010283F871207B68E3
:101C30004FF0010283F85C202CE17B681B6D002BC8
:101C40001CD07B689A6D7B685B6D9A4216D27B686C
:101C50005B691B7A3B737B681A6D7B689B6D1A44CA
:101C6000397B117003F101027B689A657B68DB6840
:101C70004FEA03223B7B1A447B68DA607B689A6DEB
:101C80007B685B6D9A42C0F002817B689B694FF074
:101C900000029A60FEE07B681B7A042B35D17B68DA
:101CA0009A6D7B681B6E9A4203D17B68DA687B6809
:101CB000DA647B685B6E002B21D07B685B6E7A6890
:101CC000116D7A68926D92B2786898470346FB73FB
:101CD000FB7B002B08D17868FFF75EFC7B689B6973
:101CE0004FF001029A6017E07B689B694FF0000299
:101CF0009A607B684FF0000283F868200CE07B68F4
:101D00009B694FF001029A6006E07B684FF0000289
:101D1000DA647868FFF740FC7B684FF0000283F8D4
:101D20005C207B6893F87130002B04D07B689B6942
:101D30004FF001025A617B684FF000021A72A9E06D
:101D40007B684FF000021A727B684FF00002DA6481
:101D50007B6893F85C30DBB2012B04D17B684FF0D9
:101D6000020283F85C207868FFF716FC92E0FB7AA9
:101D7000DBB2A82B1BD17B684FF005021A727B687F
:101D80004FF00002DA607B684FF0010283F85C20BC
:101D90007B689B695B69002B09D07B689B694FF06E
:101DA00000025A617B684FF0010283F871207B6862
:101DB000DA6C7B689B6C9A4205D37B685B694FF059
:101DC000FF321A720CE07B685A697B68596C7B6839
:101DD000DB6C19440978117203F101027B68DA6443
:101DE0007B68DA6C7B689B6C9A4252D37B689B69F8
:101DF0004FF000029A607B684FF00002DA6449E01D
:101E00007B684FF00002DA647B689B694FF0010247
:101E10009A607B684FF0000283F85C207B6893F83F
:101E20007130002B04D07B689B694FF001025A612E
:101E30007B684FF000021A722CE07B689B694FF0C0
:101E400000025A617B684FF000021A727B684FF003
:101E50000002DA647B6893F83C30DBB2012B04D1DA
:101E60007B684FF0020283F83C207B6893F85C307B
:101E7000DBB2012B0ED17B684FF0020283F85C20AD
:101E800008E000BF06E000BF04E000BF02E000BFC2
:101E900000E000BFBB7B002B04D07B689B694FF048
:101EA0000002DA607B685B691B79FB7207F110073F
:101EB000BD4680BD80B582B000AF00F045F8034656
:101EC0007B604FF0010000F04FF87B68184607F187
:101ED0000807BD4680BD00BF80B582B000AF786006
:101EE000786800F041F807F10807BD4680BD00BFE3
:101EF000684620F007018D4689B500AF46F6A02060
:101F0000C2F20000FFF75CFB4FF00E00FFF756F93E
:101F1000BD46BDE889408546704700BF684620F051
:101F200007018D4689B500AF46F61430C2F20000B5
:101F3000FFF746FB4FF01100FFF740F9BD46BDE843
:101F400089408546704700BF80B483B000AF4FF032
:101F500000037B60EFF310837B607B68184607F11A
:101F60000C07BD4680BC704780B483B000AF78607A
:101F70007B6883F3108807F10C07BD4680BC70476F
:101F800080B400AFBD4680BC704700BF80B58AB04A
:101F900000AF46F28833C2F20003BC460FCB8CE898
:101FA0000F0042F20003CEF204039B6C4FEA93034E
:101FB00003F003034FEA830307F12802134453F8A5
:101FC000283C3B6142F20003CEF204039B6C4FEAD3
:101FD000131303F003034FEA830307F128021344AA
:101FE00053F8283C7B6142F20003CEF204039B6C61
:101FF0004FEA931303F003034FEA830307F1280228
:10200000134453F8283CBB6142F20003CEF20403B0
:10201000DB6C4FEA132303F01F033B6242F2000321
:10202000CEF20403DB6C4FEA533303F001037B620F
:102030003B6A03F10103FB617B6A002B03D0FB6960
:102040004FEA4303FB6100F049F8024646F2F843C9
:10205000C2F200031A6046F2F843C2F200031A68A3
:102060003B69B2FBF3F246F2FC43C2F200031A6092
:1020700046F2F843C2F200031A687B69B2FBF3F23E
:1020800046F20053C2F200031A6046F2F843C2F26D
:1020900000031A68BB69B2FBF3F246F20453C2F2C2
:1020A00000031A6046F2F843C2F200031A68FB69A3
:1020B000B2FBF3F246F20853C2F200031A6046F292
:1020C000F843C2F200031A6846F2F443C2F2000376
:1020D0001A6007F12807BD4680BD00BF80B48BB0F1
:1020E00000AF4FF000037B6040F61C03C6F208030C
:1020F000BB6040F23023C6F20803FB60FB681B683C
:1021000023F070433B613A6941F2CF13C0F2A1530F
:102110009A4208D14EF62C73C6F201037B617B69AB
:102120001B687B603DE0BB681A6844F24133C4F62B
:1021300054439A4235D140F64003C6F20803BB61CE
:10214000BB691B68FB61FB6923F07F43FB61FA6994
:1021500040F20033C0F201039A4222D9FA694FF6E5
:10216000FF73C0F201039A4208D841F22C63C6F211
:1021700008033B623B6A1B687B6012E0FA694FF61A
:10218000FF73C0F202039A4208D841F6AC63C6F26C
:1021900008037B627B6A1B687B6002E04FF00003F0
:1021A0007B607B68002B05D100BE47F64003C0F280
:1021B0007D137B607B68184607F12C07BD4680BC09
:1021C000704700BF81F0004102E000BF83F0004390
:1021D00030B54FEA41044FEA430594EA050F08BFC2
:1021E00090EA020F1FBF54EA000C55EA020C7FEA86
:1021F000645C7FEA655C00F0E2804FEA5454D4EB03
:102200005555B8BF6D420CDD2C4480EA020281EACC
:10221000030382EA000083EA010180EA020281EA04
:102220000303362D88BF30BD11F0004F4FEA013156
:102230004FF4801C4CEA113102D0404261EB410165
:1022400013F0004F4FEA03334CEA133302D05242EB
:1022500063EB430394EA050F00F0A780A4F10104A7
:10226000D5F1200E0DDB02FA0EFC22FA05F28018E1
:1022700041F1000103FA0EF2801843FA05F35941C7
:102280000EE0A5F120050EF1200E012A03FA0EFC46
:1022900028BF4CF0020C43FA05F3C01851EBE37170
:1022A00001F0004507D54FF0000EDCF1000C7EEB8D
:1022B00000006EEB0101B1F5801F1BD3B1F5001FCB
:1022C0000CD349085FEA30004FEA3C0C04F10104EA
:1022D0004FEA445212F5800F80F09A80BCF1004F13
:1022E00008BF5FEA500C50F1000041EB045141EA95
:1022F000050130BD5FEA4C0C404141EB010111F496
:10230000801FA4F10104E9D191F0000F04BF014640
:102310000020B1FA81F308BF2033A3F10B03B3F11E
:1023200020020CDA0C3208DD02F1140CC2F10C02AE
:1023300001FA0CF021FA02F10CE002F11402D8BF0C
:10234000C2F1200C01FA02F120FA0CFCDCBF41EAD8
:102350000C019040E41AA2BF01EB0451294330BDA7
:102360006FEA04041F3C1CDA0C340EDC04F1140484
:10237000C4F1200220FA04F001FA02F340EA03005B
:1023800021FA04F345EA030130BDC4F10C04C4F1A1
:10239000200220FA02F001FA04F340EA0300294681
:1023A00030BD21FA04F0294630BD94F0000F83F4CB
:1023B000801306BF81F480110134013D4EE77FEAAE
:1023C000645C18BF7FEA655C29D094EA050F08BFFA
:1023D00090EA020F05D054EA000C04BF19461046DB
:1023E00030BD91EA030F1EBF0021002030BD5FEA1F
:1023F000545C05D14000494128BF41F0004130BD47
:1024000014F580043CBF01F5801130BD01F000459A
:1024100045F0FE4141F470014FF0000030BD7FEA0D
:10242000645C1ABF194610467FEA655C1CBF0B4608
:10243000024650EA013406BF52EA033591EA030F1F
:1024400041F4002130BD00BF90F0000F04BF002117
:10245000704730B54FF4806404F132044FF000054A
:102460004FF0000150E700BF90F0000F04BF0021C3
:10247000704730B54FF4806404F1320410F0004529
:1024800048BF40424FF000013EE700BF42004FEA24
:10249000E2014FEA31014FEA02701FBF12F07F43A1
:1024A00093F07F4F81F06051704792F0000F14BF9E
:1024B00093F07F4F704730B54FF4607401F00045E2
:1024C00021F0004120E700BF50EA010208BF704739
:1024D00030B54FF000050AE050EA010208BF70472E
:1024E00030B511F0004502D5404261EB41014FF497
:1024F000806404F132045FEA915C3FF4DCAE4FF09B
:1025000003025FEADC0C18BF03325FEADC0C18BF81
:10251000033202EBDC02C2F1200300FA03FC20FAD2
:1025200002F001FA03FE40EA0E0021FA02F114441F
:10253000C1E600BF70B54FF0FF0C4CF4E06C1CEA34
:1025400011541DBF1CEA135594EA0C0F95EA0C0FA9
:1025500000F0DEF82C4481EA030621EA4C5123EA1C
:102560004C5350EA013518BF52EA033541F480114B
:1025700043F4801338D0A0FB02CE4FF00005E1FBFE
:1025800002E506F00042E0FB03E54FF00006E1FB48
:1025900003569CF0000F18BF4EF0010EA4F1FF048B
:1025A000B6F5007F64F5407404D25FEA4E0E6D41CB
:1025B00046EB060642EAC62141EA55514FEAC520DC
:1025C00040EA5E504FEACE2EB4F1FD0C88BFBCF558
:1025D000E06F1ED8BEF1004F08BF5FEA500E50F109
:1025E000000041EB045170BD06F0004646EA0101CF
:1025F00040EA020081EA0301B4EB5C04C2BFD4EB01
:102600000C0541EA045170BD41F480114FF0000EF9
:10261000013C00F3AB8014F1360FDEBF002001F067
:10262000004170BDC4F10004203C35DA0C341BDCE1
:1026300004F11404C4F1200500FA05F320FA04F0B3
:1026400001FA05F240EA020001F0004221F00041E7
:1026500010EBD37021FA04F642EB06015EEA430E5A
:1026600008BF20EAD37070BDC4F10C04C4F120058A
:1026700000FA04F320FA05F001FA04F240EA02003D
:1026800001F0004110EBD37041F100015EEA430E0E
:1026900008BF20EAD37070BDC4F1200500FA05F22E
:1026A0004EEA020E20FA04F301FA05F243EA0203AD
:1026B00021FA04F001F0004121FA04F220EA0200BC
:1026C00000EBD3705EEA430E08BF20EAD37070BD02
:1026D00094F0000F0FD101F00046400041EB0101E2
:1026E00011F4801F08BF013CF7D041EA060195F0C4
:1026F000000F18BF704703F00046520043EB03037E
:1027000013F4801F08BF013DF7D043EA060370476A
:1027100094EA0C0F0CEA135518BF95EA0C0F0CD075
:1027200050EA410618BF52EA4306D1D181EA0301BB
:1027300001F000414FF0000070BD50EA410606BFB5
:102740001046194652EA430619D094EA0C0F02D1FA
:1027500050EA013613D195EA0C0F05D152EA03363F
:102760001CBF104619460AD181EA030101F000415D
:1027700041F0FE4141F470014FF0000070BD41F0A6
:10278000FE4141F4780170BD70B54FF0FF0C4CF480
:10279000E06C1CEA11541DBF1CEA135594EA0C0F9F
:1027A00095EA0C0F00F0A7F8A4EB050481EA030EEC
:1027B00052EA03354FEA013100F088804FEA0333D3
:1027C0004FF0805545EA131343EA12634FEA0222A1
:1027D00045EA111545EA10654FEA00260EF0004162
:1027E0009D4208BF964244F1FD0404F5407402D2B4
:1027F0005B084FEA3202B61A65EB03055B084FEA45
:1028000032024FF480104FF4002CB6EB020E75EB41
:10281000030E22BFB61A754640EA0C005B084FEA69
:102820003202B6EB020E75EB030E22BFB61A7546E6
:1028300040EA5C005B084FEA3202B6EB020E75EB31
:10284000030E22BFB61A754640EA9C005B084FEAA9
:102850003202B6EB020E75EB030E22BFB61A7546B6
:1028600040EADC0055EA060E18D04FEA051545EAA5
:1028700016754FEA06164FEAC30343EA52734FEA4E
:10288000C2025FEA1C1CC0D111F4801F0BD141EAC7
:1028900000014FF000004FF0004CB6E711F4801F2C
:1028A00004BF01430020B4F1FD0C88BFBCF5E06F0C
:1028B0003FF6AFAEB5EB030C04BFB6EB020C5FEA1C
:1028C000500C50F1000041EB045170BD0EF0004E71
:1028D0004EEA113114EB5C04C2BFD4EB0C0541EAA3
:1028E000045170BD41F480114FF0000E013C90E6A0
:1028F00045EA060E8DE60CEA135594EA0C0F08BF64
:1029000095EA0C0F3FF43BAF94EA0C0F0AD150EA62
:1029100001347FF434AF95EA0C0F7FF425AF1046F5
:1029200019462CE795EA0C0F06D152EA03353FF41D
:10293000FDAE1046194622E750EA410618BF52EA9A
:1029400043067FF4C5AE50EA41047FF40DAF52EA6E
:1029500043057FF4EBAE12E74FF0FF3C06E000BF0B
:102960004FF0010C02E000BF4FF0010C4DF804CD18
:102970004FEA410C7FEA6C5C4FEA430C18BF7FEAD8
:102980006C5C1BD001B050EA410C0CBF52EA430C06
:1029900091EA030F02BF90EA020F0020704710F186
:1029A000000F91EA030F58BF994208BF90422CBF15
:1029B000D8176FEAE37040F0010070474FEA410C0E
:1029C0007FEA6C5C02D150EA013C07D14FEA430C2C
:1029D0007FEA6C5CD6D152EA033CD3D05DF8040B9D
:1029E000704700BF8446104662468C4619466346CF
:1029F00000E000BF01B5FFF7B7FF002848BF10F1A6
:102A0000000F01BD4DF808EDFFF7F4FF0CBF0120EA
:102A100000205DF808FB00BF4DF808EDFFF7EAFF66
:102A200034BF012000205DF808FB00BF4DF808ED21
:102A3000FFF7E0FF94BF012000205DF808FB00BF16
:102A40004DF808EDFFF7CEFF94BF012000205DF8A0
:102A500008FB00BF4DF808EDFFF7C4FF34BF0120AD
:102A600000205DF808FB00BF46F20C540E46C2F28F
:102A70000004844600B5216885B01546C86882B157
:102A800046F29834C2F2000446F2A8311A46C2F265
:102A90000001634600960194029500F015F800F0DD
:102AA000E9FF46F2A434C2F200042546ECE700BF79
:102AB00008B513460022FFF7D7FF00BF46F20C53BC
:102AC000C2F20003186870470EB446F20C5310B5FA
:102AD00083B005ACC2F20003014654F8042B186819
:102AE0002346019400F0B6F803B0BDE8104003B0EF
:102AF000704700BF0CB410B582B004AC54F8042B7E
:102B00002346019400F0A6F802B0BDE8104002B0E0
:102B1000704700BF70B546F2E04646F2E045C2F2AB
:102B20000006C2F20005761BB61006D0002455F848
:102B3000243001349847A642F9D846F2E04546F2DF
:102B4000E446C2F20005C2F20006761B03F0BCFCAC
:102B5000B61006D0002455F8243001349847A64218
:102B6000F9D870BD032AC9B230B407D822B1002306
:102B7000C15401339342FBD130BC704700EB020CCF
:102B8000034601E003F8011C03F003041A46013375
:102B9000002CF7D14FF00133C2EB0C0403FB01F31F
:102BA0001FE042F8403C42F83C3C42F8383C42F8D6
:102BB000343C42F8303C42F82C3C42F8283C42F885
:102BC000243C42F8203C42F81C3C42F8183C42F8B5
:102BD000143C42F8103C42F80C3C42F8083C42F8E5
:102BE000043C154640323F2CA4F14004D9DC2A466F
:102BF000C5EB0C0407E042F8103C42F80C3C42F8EC
:102C0000083C42F8043C154610320F2CA4F1100485
:102C1000F1DC2A46C5EB0C0501E042F8043C144601
:102C20000432032DA5F10405F7DC01E004F8011BD3
:102C30006445FBD3A0E700BF936810B5144613B9F1
:102C40005360184610BD01F0F1F900236360A360E2
:102C500010BD00BF2DE9F04FADF5A26D83B00E465B
:102C600015469B46029018B18369002B00F0ED8455
:102C700046F23043C2F200039E4200F0EF8446F277
:102C80005043C2F200039E4200F0048646F27043B5
:102C9000C2F200039E4204BF029AD668B6F80CC086
:102CA0001FFA8CF313F4005F09D14CF4005C726ED0
:102CB000A6F80CC01FFA8CF322F40052726613F0CF
:102CC000080F00F02C863269002A00F0288603F0F5
:102CD0001A030A2B00F0778446F2E0390023C2F28F
:102CE00000090A9306930DF59C62CDF810350DF599
:102CF0009464CDF80C354B46B1461E462832CDF8CB
:102D000008450D922B78B3F1250218BF0122002B44
:102D10000CBF002202F001023AB32F4617F8013F20
:102D20001A1E18BF0122252B0CBF002202F001023F
:102D3000002AF3D1B7EB050808BF3D4615D0C4F80B
:102D40000480DDF80C35DDF8102501332560072BF4
:102D50004244CDF80C35CDF8102500F3F483083447
:102D6000069B3D46434406933B78002B00F0A48528
:102D70006A1C4FF0FF374FF02B0C4FF0200800205B
:102D80004FF0000104908DF817156B780190551CD9
:102D9000A3F12002582A00F22482DFE812F0180280
:102DA0002202220211022202220222022202220214
:102DB0002202DE0056022202E8003902220232021A
:102DC000540154015401540154015401540154015B
:102DD00054012202220222022202220222022202A2
:102DE000220222022202BD0022022202220222022A
:102DF000220222022202220222022202B000220227
:102E00002202220222022202590022022202D501BB
:102E10002202220222022202220222022202220292
:102E2000220222026601C100220222022202CE01F7
:102E3000C10022022202220122020C01B400EF0092
:102E40004D0122022C0122025D0022022202F20127
:102E5000019A42F010020192019B13F0200F00F042
:102E60004D840BF10703012123F0070303F1080C44
:102E7000CDF80CC0D3E900AB5AEA0B000CBF00221E
:102E800001224FF000038DF81735002FA2BFDDF8A7
:102E900004C02CF0800CCDF804C0002F18BF42F005
:102EA0000102002A00F0BB82012900F0F48302290C
:102EB00000F0D8830D9908914FEADA084FEADB0C4D
:102EC00048EA4B780AF00700E346C24630305AEA37
:102ED0000B0201F8010DEFD1DDF804C008911CF0E0
:102EE000010F00F06A84302800F014850898302320
:102EF00000F8013D0D990890091A05919EE201998B
:102F000041F010010191019A12F0200100F021849A
:102F10000BF107030021A7E7019B43F01003019386
:102F2000DDF804C01CF0200F00F000840BF1070353
:102F300023F0070303F108000390D3E900ABBAF1D3
:102F4000000F7BF10003C0F24B845AEA0B0C4FF0E8
:102F500001010CBF0022012297E7DBF800300BF1E2
:102F6000040B002B049306DA049840420490019964
:102F700041F0040101912A462B7808E7DBF8003084
:102F800046F2144001990BF1040BC2F20000CDF897
:102F90000CB041F002010A9001911A1E18BF0122E3
:102FA00030219A464FF0000B8DF8141578218DF8DA
:102FB0001515022165E7019911F0200F40F04A84B0
:102FC000019B13F0100F40F05984019911F0400F4C
:102FD00000F05484DBF800300BF1040B069A1A80E1
:102FE00090E62B786C2B00F0418401992A4641F041
:102FF00010010191CBE65B464FF000028DF81725DA
:103000000BF1040B1B680893002B00F06884002F61
:103010000898C0F25E8400213A4601F031FD034673
:10302000002800F0338408981B1A0593BB4200F374
:103030002D840021079104E2019A42F020020192BE
:103040002A462B78A3E6A3F1300100202A4600EBA4
:10305000800012F8013B01EB4000A3F1300115465E
:103060000929F3D90490154692E65B460BF1040B4F
:103070004FF0010C0DF59C611B684FF00002CDF87C
:103080000CC0CDF814C008918DF817258DF8E034E8
:1030900000220792019911F002010C9102D0039ACB
:1030A00002320392019B13F084030B9340F0D28011
:1030B00004980399471A002F40F3CC80102F40F357
:1030C000218446F2E030DDF81035C2F200004FF006
:1030D000100809900DF5A16A02E0103F102F1CDDC9
:1030E000C4F804801033DDF80C2526600834013262
:1030F000CDF81035072ACDF80C25EEDD02984946AB
:1031000052460DF59464FFF797FD002840F0B38117
:10311000103FDDF81035102FE2DC6760DB19DDF8B9
:103120000C2509990132CDF81035072ACDF80C2568
:10313000216000F3348308348EE0019B2A4643F07B
:10314000400301932B7822E6019846F20041C2F237
:1031500000010A9110F0200F1DD00BF1070222F0A0
:10316000070202F108010391D2E900AB5AEA0B0011
:1031700001990CBF00220122114240F00383022179
:103180007FE6019846F2144CC2F2000CCDF828C03C
:1031900010F0200FE1D1019A12F0100F40F03E83A1
:1031A000DDF804C01CF0400F00F03883BBF800A02D
:1031B0000BF1040BCDF80CB0D2464FF0000BD5E765
:1031C000019A42F0010201922A462B78DFE59DF830
:1031D0001735002B40F03A838DF817852A462B7857
:1031E000D5E5002B00F0688301228DF8E0340DF561
:1031F0009C604FF0000303928DF8173505920890FC
:1032000046E7019A42F0800201922A462B78BEE5F9
:103210002A4612F8013B2A2B00F08E83A3F13001DD
:10322000092900F26B830235002715F8013C07EBF2
:1032300087072A46013501EB4707A3F13001092929
:10324000F3D947EAE7771546A2E58DF817C52A4670
:103250002B789CE5DDF810359DF817258AB1012201
:103260006260DDF80C159B18CDF8103589180DF546
:10327000A262073207292260CDF80C1500F3958170
:1032800008340C9A8AB102226260DDF80C159B1892
:103290000DF5A262CDF81035013104320729226004
:1032A000CDF80C1500F373810834DDF82CC0BCF1A7
:1032B000800F00F0F380DDF81CC0059AC2EB0C070C
:1032C000002F3EDD102FDFF888862BDD42464FF0C1
:1032D000100AA846154604E0103F102F1FDDDDF848
:1032E0001035C4F804A01033DDF80C25256008342F
:1032F0000132CDF81035072ACDF80C25ECDD029807
:1033000049460DF5A1620DF59464FFF795FC002880
:1033100040F0B180103FDDF81035102FDFDC2A4679
:10332000454690466760DB19DDF80C25C4F800803F
:103330000132CDF81035072ACDF80C2500F319819C
:103340000834059808991B186060DDF80C25216089
:103350000132CDF81035072ACDF80C25D8BF04F17D
:10336000080200F3E380DDF804C01CF0040F46D02F
:1033700004980399471A002F40F3F880102FDEBFFE
:1033800046F2E030C2F2000009902ADD46F2E03158
:103390001024C2F200010DF5A1680991DDF808A022
:1033A00004E0103F102F1CDDDDF8103554601033A1
:1033B000DDF80C15166008320131CDF810350729FB
:1033C000CDF80C15EDDD424650464946FFF734FC7A
:1033D0000DF5946200284ED1103FDDF81035102F06
:1033E000E2DC0998DB195760CDF810351060DDF884
:1033F0000C250132CDF80C25072A00F3AF80069981
:10340000DDF80CC0049A9445ACBF6144891806915C
:103410004BBB00200DF59464CDF80C0572E4002937
:1034200037D1019911F0010F33D00DF59C62302393
:1034300027328DF80735089201230593DDF80CB08B
:103440000797DDF814C007989DF817358445B8BF75
:103450008446CDF80CC0002B3FF41CAE0CF1010CDF
:10346000CDF80CC016E6029849460DF5A162FFF7AB
:10347000E3FB0028CDD04E46B38913F0400F02D0B5
:103480004FF0FF310691069847B00DF5806DBDE80D
:10349000F08F0D98002105910890CFE704980399CB
:1034A000471A002FD8BFDDF810357FF704AF102F73
:1034B000DFF89C842ADD42464FF0100AA8461546E4
:1034C00004E0103F102F1EDDDDF81035C4F804A015
:1034D0001033DDF80C25256008340132CDF81035A5
:1034E000072ACDF80C25ECDD029849460DF5A162BE
:1034F0000DF59464FFF7A0FB0028BCD1103FDDF868
:103500001035102FE0DC2A46454690466760DB19EF
:10351000DDF80C25C4F800800132CDF81035072AFB
:10352000CDF80C2500F3BA810834C4E60298494668
:103530000DF5A162FFF780FB00289CD1DDF8103566
:103540000DF594620FE7029849460DF5A162FFF769
:1035500073FB00288FD10DF5946401E4029849466D
:103560000DF5A162FFF768FB002884D1DDF8103566
:1035700045E7029849460DF5A162FFF75DFB00287B
:103580007FF479AFDDF810350DF59464D9E6029833
:1035900049460DF5A162FFF74FFB00287FF46BAFA2
:1035A000DDF810350DF594647FE6029849460DF577
:1035B000A162FFF741FB00287FF45DAFDDF8103515
:1035C0000DF594645DE6B6F90E30002BFFF684AB82
:1035D000376A2CF0020CD6F828E00DF58764ADF8B8
:1035E00044C42A46B6F80EC05B46029821460EAD8A
:1035F000CDF85874CDF848540027CDF838544FF41E
:103600008065CDF860E4ADF846C4CDF84C54CDF8F3
:103610005074CDF84054FFF71DFB0028069009DBDD
:103620002146029800F02EFA0699B84218BF4FF0D2
:10363000FF310691BDF8443413F0400F3FF423AF3F
:10364000B38943F04003B3811DE700F08BFB46F2E2
:103650003043C2F200039E427FF411AB02984668E9
:10366000FFF71CBB0D9A0A98134608920AF00F0246
:103670004FEA1A1141EA0B714FEA1B1C825C8A4621
:10368000E3465AEA0B0C03F8012DEFD10D9808938D
:10369000C01A0590D2E609220023524573EB0B00B5
:1036A000DDF834801FD223464446B8461F465046B4
:1036B00059460A22002301F039FF0023504659469B
:1036C00002F1300C0A2204F801CD01F02FFF09228B
:1036D000002382468B46524573EB0B03E7D33B46F0
:1036E0004746A0461C4608F1FF300AF1300A089010
:1036F00008F801AC0D99091A05919FE6019911F09E
:10370000100F7CD1019A12F0400F78D0BBF800A0C6
:1037100001210BF1040BCDF80CB0BAF1000218BF77
:103720000122D2464FF0000BFFF7ABBB019911F01D
:10373000100F46D1019A12F0400F42D0BBF900A001
:103740000BF1040BCDF80CB0D2464FEAEA7BFFF741
:10375000F6BB019A12F010036AD1DDF804C01CF028
:10376000400165D0BBF800A019460BF1040BCDF861
:103770000CB0BAF1000218BF0122D2464FF0000B84
:10378000FFF77FBB019A02218DF81535302342F0F7
:1037900002028DF8143501920122FFF772BB0298E4
:1037A00049460DF5A162FFF747FA00287FF463AEA2
:1037B000DDF810350DF594644EE50D98401A05902E
:1037C0003CE6DBF800300BF1040BCDF80CB09A4668
:1037D0004FEAEA7BBAF1000F7BF10003BFF6B5AB0D
:1037E000DAF1000A6BEB4B0B2D235AEA0B008DF834
:1037F00017350CBF002201220121FFF746BBDBF881
:10380000003001210BF1040BCDF80CB01A1E18BFCB
:1038100001229A464FF0000BFFF733BBDBF8002084
:103820000BF1040BCDF80CB092464FF0000B9DE469
:10383000DBF800300BF1040BCDF80CB01A1E18BFEA
:1038400001229A464FF0000BFFF71BBB2B782A464C
:10385000FFF79DBADBF800300BF1040B069A104617
:103860004FEAE071C3E90001FFF74CBA01986A1C06
:1038700040F0200001906B78FFF789BADBF8003048
:103880000BF1040B06981860FFF73CBA002205976D
:103890000792D6E502998E68FFF700BA029849466A
:1038A0000DF5A162FFF7C8F900287FF4E4ADDDF85B
:1038B00010350DF59464FEE4DDF810354E46002B0E
:1038C0003FF4DAAD029849460DF5A162FFF7B4F96D
:1038D000D2E50021079101F029FD0590B1E5062F01
:1038E00028BF062746F22843C2F2000327EAE77CF6
:1038F00005970893CDF80CC0FFF7CABB0027154603
:10390000FFF746BA46F2E032DDF81035C2F20002A7
:10391000099202E40D9A0899511A05918EE50298D0
:10392000314600F025F800287FF4AAADB6F80CC0A7
:103930001FFA8CF3FFF7CBB9DBF800700BF1040B27
:103940001378002FB8BF4FF0FF37FFF720BA00BF42
:10395000F063002010B446F20C54C2F200048C460E
:10396000134601466246206810BCFFF773B900BFDA
:1039700070B546F20C55C2F2000506460C462868A2
:1039800010B18369002B36D046F23043C2F20003F7
:103990009C4238D046F25043C2F200039C4241D0D0
:1039A00046F27043C2F200039C4204BF2B68DC68FD
:1039B000A289114693B213F0080F184618BF226966
:1039C00033D01AB313F0010107D063690021A1605D
:1039D0005B42A36142B1002070BD13F0020F08BF2B
:1039E0006169A160002AF6D1A38913F0800FF2D09B
:1039F0004FF0FF3070BD00F0B5F946F23043C2F22F
:103A000000039C42C6D12B685C68D1E703F42071A7
:103A1000B1F5007FD6D03046214600F0F1FCA389F5
:103A20002269CFE72B689C68C2E713F0100FDFD044
:103A300013F0040F08BF226917D0616B51B104F174
:103A40004403994203D0304600F010FAA28990B2A4
:103A50000023636322694FF6DB71C0F2000100238B
:103A600000EA01016360A181226041F00803A381A3
:103A70009BB2A6E708B5062001F07EFB0120FCF70B
:103A800071FF00BF0B692DE9F0410C468046002B09
:103A900071D010B18369002B78D046F23043C2F266
:103AA00000039C4208BFD8F8044010D046F25043AF
:103AB000C2F200039C4208BFD8F8084007D046F283
:103AC0007043C2F200039C4208BFD8F80C40A3899F
:103AD0001AB212F0080F35D1626843F40063A38173
:103AE000002A5EDDE66A002E45D09BB213F48052B8
:103AF00018BF656D59D013F0040F4AD1002340461A
:103B0000216A2A46B047854238D1A1894FF2FF7316
:103B10002269C0F2000301EA03030021616013F48B
:103B2000805F616BA381226018BF656519B304F1E2
:103B30004403994202D0404600F098F900206063A7
:103B4000BDE8F0812669B6B125682660AD1B12F08C
:103B5000030F0CBF63690023A3600AE032462B46C3
:103B6000A76A4046216AB8470028C0EB050506440D
:103B700004DD002DF2DC0020BDE8F081A3894FF0C8
:103B8000FF3043F04003A381BDE8F08100F0EAF884
:103B900083E76268636BAD1A002BAFD0236CED1A1C
:103BA000ACE7226C002A9DDCE5E701234046216A50
:103BB000B047B0F1FF3F054602D0A389E66A9AE715
:103BC000D8F800301D2BD6D0A38943F04003A38141
:103BD000BDE8F081014628B146F20C53C2F2000361
:103BE00018684FE746F2D83343F68521C2F2000346
:103BF000C2F20001186800F0B3BB00BF704700BFFD
:103C0000704700BF704700BF704700BF002070477B
:103C10000020704746F20C5343F61141C2F20003F4
:103C2000C2F20001186800F0C5BB00BF46F20C5399
:103C300043F60D41C2F20003C2F20001186800F021
:103C4000B9BB00BF45F27141C2F2000100F0B2BB46
:103C500046F2D833C2F200031868F3E710B5044601
:103C600000235C30A1811946E28108222360636051
:103C7000A360636623616361A361FEF773FF45F28E
:103C8000093045F2CD2145F2A52245F29D23C2F22D
:103C90000000C2F20001C2F20002C2F20003606240
:103CA000A162E2622363246210BD00BF70B5682583
:103CB0000E4605FB01F505F10C0100F00FFC044672
:103CC00048B100F10C03002146602A4618462160E5
:103CD000A360FEF747FF204670BD00BF46F2D83311
:103CE000C2F2000370B51D680646AB69002B2AD0EE
:103CF000D8356B68AC68013B03D520E06834013BE4
:103D00001DD4B4F90C20002AF8D100254FF0FF3360
:103D1000656604F15C00E38129464FF001032560EC
:103D2000A3810822A560656025616561A561FEF734
:103D300019FFE5646563A563A564204670BD286826
:103D400028B10546D5E7284600F00CF8D0E7304604
:103D50000421FFF7ABFF28600028F2D10C230446B2
:103D60003360EAE770B58669044606B170BD43F674
:103D700045430125C2F20003C0F8D8608362C0F851
:103D8000DC60C0F8E0608561FFF7A8FF6060204656
:103D9000FFF7A4FFA0602046FFF7A0FF32460421F2
:103DA0002346E0606068FFF759FF2A46A0680921B2
:103DB0002346FFF753FF2346E06812210222BDE8A5
:103DC00070404BE7F8B546F20064C2F200040F46BB
:103DD000054600F0B3FFA3685E6826F0030606F50B
:103DE0007E630F33DF1B3F0B013F3F03B7F5805F5F
:103DF00007DB0021284601F07FF9A368F31883420E
:103E000004D0284600F09CFF0020F8BD79422846E7
:103E100001F072F9B0F1FF3F10D0A26846F62023FE
:103E2000C2F20003F61B46F00106284656601A68E7
:103E3000D71B1F6000F084FF0120F8BD0021284639
:103E400001F05AF9A368C21A0F2ADADD46F60824EF
:103E500046F62021C2F20004C2F2000142F0010243
:103E60002468001B08605A60CBE700BF2DE9F041D1
:103E700005460C46002900F0888000F05FFFA4F1A1
:103E8000080246F200605668C2F2000026F0010304
:103E9000D0F808C0D1188C454F6827F0030700F010
:103EA000958016F001064F605FD00026CC1964683B
:103EB00014F0010F06D1DB19002E7AD08C68C96886
:103EC0008C60E16043F00101D3505160002E47D176
:103ED000B3F5007F5BD3590A04299EBF4FEA931CB8
:103EE0000CF1380C4FEACC0428D914299CBF01F1FD
:103EF0005B0C4FEACC0421D954299EBF4FEA133CF6
:103F00000CF16E0C4FEACC0418D9B1F5AA7F9EBF14
:103F10004FEAD33C0CF1770C4FEACC040ED940F2B7
:103F2000545C614595BF4FEA934C4FF47C740CF19F
:103F30007C0C4FF07E0C98BF4FEACC040419A168AA
:103F4000A14203D164E089688C4204D0486820F023
:103F500003008342F7D3CB68D3609160CA609A6054
:103F60002846BDE8F04100F0EBBE54F8084C00F1E3
:103F7000080C121B1B199468644547D0D2F80CC07A
:103F8000CCF80840C4F80CC090E7BDE8F081DB082D
:103F90004FF0010C466800EBC3019B100CFA03F3D1
:103FA000D1608C6846EA030343609460E2608A60F3
:103FB000D6E78C681C4FBC4281D1D35043F001033B
:103FC000E260A26053609460D460C9E7FB1816F009
:103FD000010F07D154F8081C521A5B18D468916875
:103FE000A160CC6046F60C218260C2F2000143F071
:103FF000010050600A689342B2D346F61C2328465B
:10400000C2F200031968FFF7DDFEA9E701264DE7BC
:10401000012644684FEAAC0C0B4606FA0CFC44EA55
:104020000C04446098E700BF086600202DE9F04FBB
:10403000936885B090460C460390002B64D0888925
:104040001FFA80FA1AF0080F00F0A0800B69002B0D
:1040500000F09C801AF0020BD8F800501CBF4FF003
:10406000000A574636D11AF0010A1DBFDC46D94670
:104070005F46564652D126B380B2A76810F4007F3F
:1040800000F08F80BE42BB4680F0A7802068374694
:10409000B3465A46514600F0F5FDA2682368B14682
:1040A000D71BA76037465B442360D8F80830C9EBBC
:1040B0000606CA44DF1BC8F808702FB3A089002E7B
:1040C000DAD1D5F800A06E680835D4E7D5F800A09D
:1040D0006F680835B7F5806F34BF3B464FF4806397
:1040E00052460398002FF1D0A66A216AB0470028F3
:1040F0008244C0EB070740F3EC80D8F80830181A68
:10410000C8F808000028E5D1002005B0BDE8F08F10
:10411000D5F800904FF0000C6F680835002FF7D0ED
:10412000BCF1000F00F0B5806369BB4534BFDA46CF
:10413000BA46A668206822699E19904294BF002260
:104140000122B245D4BF002202F00102002A40F051
:10415000AE809A45C0F28280A66A4A46CDF804C075
:104160000398216AB047DDF804C0061E40F3B18011
:10417000BBEB060B00F08680D8F80830B144BF1BBB
:104180009E1BC8F80860002EC8D1BDE703982146E1
:10419000FFF7EEFB002840F0D480A0891FFA80FAD8
:1041A00058E72068B9462369984294BF0023012349
:1041B000B7422CBF002303F00103002B40F09D8089
:1041C00063699E42C0F08C80A76A52460398216AB8
:1041D000B847071E7DDDB94667E710F4906F08BF4A
:1041E00020683FF456AF62692169236802EB4209F7
:1041F0005B1A09EBD97903F1010CB4444FEA690960
:10420000E1454A463CBFE1464A4610F4806F00F063
:10421000838011460398029300F060F9029B002806
:1042200000F099801A4621690293019000F062FC27
:10423000A289029BDDF804C022F4906242F0800261
:10424000A281C3EB09020CEB03003746B346A26020
:10425000C4F810C02060C4F814901AE752464946CA
:104260005646CDF804C000F00DFDA2682368BBEBF4
:10427000060BCAEB0202DDF804C05344A2602360BF
:104280007FF47AAF03982146FFF7FCFB08BBDC46BE
:1042900072E748460A213A4600F0F2FB00284BD06C
:1042A00000F1010B4FF0010CC9EB0B0B3CE7494649
:1042B0003246CDF804C000F0E5FC2368214603989F
:1042C0009B192360FFF7DEFBDDF804C000283FF4F4
:1042D0004FAFA3894FF0FF3043F04003A38114E7B1
:1042E0003246514600F0CEFCA26823683746921B46
:1042F000B1469B19A2602360D7E651463A4600F0CA
:10430000C1FC236803982146DB192360FFF7BAFB41
:1043100000283FF4CAAEDCE70398029300F012FDD8
:10432000029B844600288CD121690398FFF79EFDEB
:1043300003990C230B60CCE707F1010B4FF0010C44
:10434000F2E603990922A3894FF0FF3043F04003BE
:104350000A60A381D9E6039A0C231360B9E700BF72
:104360002DE9F84507468A46FFF748FC17F1D806BD
:1043700008BFB04618D04FF000087568B468013D1A
:104380000FD4B4F90C304BB1B4F90E302146384695
:10439000B3F1FF3F02D0D04748EA00086834013D3E
:1043A000EFD53668002EE8D1FFF72AFC4046BDE87D
:1043B000F88500BF2DE9F04106468846FFF71EFC50
:1043C000D83608BF374615D000277568B468013D58
:1043D0000DD4B4F90C303BB1B4F90E302046B3F132
:1043E000FF3F01D0C04707436834013DF1D536682F
:1043F000002EEAD1FFF704FC3846BDE8F08100BF8B
:104400008B89F0B50C469AB291B012F0020F0546B6
:1044100041D1B1F90E10002918DB01AA01F030F8E2
:10442000002811DB029B03F47043B3F5005F14BF57
:1044300000270127B3F5004F40D0A3894FF48066D1
:1044400043F40063A3810BE0A3899AB212F0800FBA
:1044500043F400630CBF4FF4806640260027A3811D
:104460002846314600F03AF870B1A18943F645423A
:10447000C2F20002206141F080016661AA62A1815E
:1044800020607FB911B0F0BDA38913F4007FF9D18A
:1044900043F00203A38104F1470323612360012356
:1044A0006361EFE72846B4F90E1000F0FFFF002823
:1044B000E8D0A38943F00103A381E3E745F2A523F4
:1044C000E26AC2F200039A42B7D1A2894FF4806334
:1044D0001E46236542EA0303A381C1E72DE9F04F9D
:1044E00001F10B04162C83B006462FD800231024AC
:1044F0008C422CBF194643F00101002930D13046CF
:1045000000F01CFCB4F5FC7F2ED24FEAD40E46F22C
:104510000065C2F2000505EBCE02D368934200F0BD
:1045200006825A6803F10805D968304622F0030C68
:104530009A6863445C688A6044F00104D1605C60FE
:1045400000F0FEFB284603B0BDE8F08F24F007041E
:10455000E30F8C422CBF194643F001010029CED055
:104560000C2300253360EDE75FEA542E04BF4FEAC9
:10457000D40E4FEACE0040F0908046F20065C2F2C1
:1045800000052818C368984206D10DE0002A80F281
:104590006F81DB68984207D0596821F003010A1B3C
:1045A0000F2AF3DD0EF1FF3E0EF1010E46F2006719
:1045B000C2F2000707F108018B68994208BF7A68C8
:1045C00026D05A6822F0030CC4EB0C020F2A00F329
:1045D0009481002AC960896080F29980BCF5007FCF
:1045E00080F065814FEADC0C4FF0010A7A6807EB36
:1045F000CC004FEAAC0C0AFA0CFCD860D0F808806A
:104600004CEA02027A60C3F80880C8F80C30836074
:104610004FF0010C4FEAAE030CFA03FC944500F294
:10462000828012EA0C0F08D12EF0030E4FEA4C0CD8
:104630000EF1040E12EA0C0FF8D007EBCE09F24689
:10464000C846D8F80C30984507D168E1002A80F2B6
:104650007881DB68984500F06281586820F003009B
:10466000021B0F2AF2DD1D461F19D3F80CC044F0BF
:10467000010E55F8084F3046BA5042F00102C3F817
:1046800004E0CCF80840C4F80CC08F60CF607A60BA
:10469000B960F96000F054FB54E7BEF1040F9EBF0F
:1046A0004FEA941E0EF1380E4FEACE007FF665AF4A
:1046B000BEF1140F9CBF0EF15B0E4FEACE007FF6E9
:1046C0005CAFBEF1540F9EBF4FEA143E0EF16E0E6A
:1046D0004FEACE007FF651AFBEF5AA7F9EBF4FEAEC
:1046E000D43E0EF1770E4FEACE007FF646AF40F291
:1046F00054539E4595BF4FEA944E4FF47C700EF193
:104700007C0E4FF07E0E98BF4FEACE0035E703EBEC
:104710000C0203F108053046536843F0010353606F
:1047200000F00EFB0EE7D7F80880D8F8043023F02D
:104730000309C4EB09024C4594BF002301230F2A4F
:10474000D8BF43F00103002B00F0A18046F61C2BDC
:10475000D5F80824C2F2000BDBF8003010331B1927
:10476000B2F1FF3F06D003F57E631F3323F47E636F
:1047700023F01F0319463046019300F0BDFC019B56
:10478000B0F1FF3F824600F0F48008EB090181425E
:1047900000F2EC80DBF804209A185145CBF8042095
:1047A00000F04581D5F8085446F20060C2F20000DE
:1047B000B5F1FF3F08BFC0F808A403D05244511A16
:1047C000CBF804101AF00705304617BFC5F10805ED
:1047D0004FF48055AA4405F5805553441B051B0D25
:1047E000ED1A294600F088FCB0F1FF3F00F02C8163
:1047F000CAEB0001491941F00101DBF8042046F63B
:104800001C23C7F808A0C2F20003AA18B845CBF8C9
:104810000420CAF8041017D0B9F10F0F40F2DF805E
:10482000A9F10C01052521F0070108EB01000F2972
:1048300085604560D8F8040000F0010041EA0000FE
:10484000C8F8040000F2AC80D04646F61C23DBF822
:104850002C10C2F200038A42DBF8301088BFDA6203
:1048600046F61C23C2F200038A4288BF1A6382E024
:104870005C189A68D9683046666803F108058A6052
:1048800046F00103D160636000F05AFA5AE608EB83
:10489000040342F0010244F001043046C8F8044029
:1048A00008F108055A60BB6000F04AFA4AE64FEA90
:1048B0005C22042A54D9142A00F289805B324FEA20
:1048C000C208A84446F20067C2F20007D8F8080000
:1048D000404503D16FE08068804504D0426822F0F3
:1048E00003029445F7D3D0F80CC0C3F80CC098600D
:1048F0007A68C360CCF808308AE61F19304644F065
:104900000104CF605C6003F10805BA5042F0010277
:104910008F607A60B960F96000F012FA12E60AF16D
:10492000010A1AF0030F5FD003F1080889E603F1CA
:104930000802D3689A4208BF0EF1020E3FF436AE69
:10494000EFE51D461918DA68304655F8083F4C68FF
:10495000936044F00104DA604C6000F0F1F9F1E595
:104960004FEA9C1238324FEAC208AAE7B8453FF432
:1049700011AFD7F80880D8F8042022F0030294423F
:1049800094BF00230123121B0F2AD8BF43F0010359
:10499000002B3FF47CAF3046002500F0D1F9D1E583
:1049A00008F1080130460193FFF760FA019BD7F840
:1049B00008805A6849E74FF0010AD7F8048092103E
:1049C00084460AFA02F248EA02027A608DE7542A23
:1049D00024D84FEA1C326E324FEAC20871E7012335
:1049E000D046CAF80430C6E74A461EF0030F134605
:1049F0000EF1FF3E33D053F808299A42F5D07B6878
:104A00004FEA4C0C9C453FF68EAEBCF1000F3FF4D4
:104A10008AAE1CEA030F27D0D6460EE6B2F5AA7F6F
:104A200015D84FEADC3277324FEAC20849E7080569
:104A3000000D00287FF4B6AED7F808804B4443F051
:104A40000103C8F8043000E701210025D5E640F253
:104A5000545082420DD94FF47C787E2231E77B6836
:104A600023EA0C037B60CBE74FEA4C0C0AF1040A03
:104A7000CFE74FEA9C427C324FEAC20821E700BFF1
:104A800010F0030FC9B210B410D0002A2FD0037851
:104A90008B422AD0013A05E0002A28D00378013A57
:104AA0008B4222D0013010F0030FF5D1032A11D927
:104AB00041EA012444EA0444036884EA0303A3F1BD
:104AC000013C2CEA030313F0803F03D1043A043085
:104AD000032AF1D85AB103788B4206D0013A32B199
:104AE00010F8013F013A8B42F9D110BC7047002009
:104AF000FBE700BF032A2DE9F0070BD83AB10023EA
:104B000011F803C000F803C001339342F8D1BDE8A7
:104B1000F007704782180C46034603E014F8011CA6
:104B200003F8011C03F003061946A44601330134BF
:104B3000002EF3D11CF00304634608BFC1EB020C46
:104B400068D06542C4F1040A0CEB050733464FEA0E
:104B5000CA0A5CF805604FEAC408551A08E057F81D
:104B6000044F264604FA0AF449EA0404CC500433FC
:104B70005C18032D26FA08F9A5F104050CEB0306D1
:104B8000EDDC002302E0F15CE1540133191991429C
:104B9000F9D3BCE753F8404C41F8404C53F83C4C37
:104BA00041F83C4C53F8384C41F8384C53F8344CED
:104BB00041F8344C53F8304C41F8304C53F82C4CFD
:104BC00041F82C4C53F8284C41F8284C53F8244C0D
:104BD00041F8244C53F8204C41F8204C53F81C4C1D
:104BE00041F81C4C53F8184C41F8184C53F8144C2D
:104BF00041F8144C53F8104C41F8104C53F80C4C3D
:104C000041F80C4C53F8084C41F8084C53F8044C4C
:104C100041F8044C1C460D4640334031BCF13F0F77
:104C2000ACF1400CB6DC21462B46541B0FE051F88A
:104C3000105C43F8105C51F80C5C43F80C5C51F8C4
:104C4000085C43F8085C51F8045C43F8045C0F2CE2
:104C50000D469C4601F1100103F11003A4F110046C
:104C6000E5DCCCEB0201002303E0EC584CF80340F8
:104C700004335E19032903EB0C04A1F10401F4DCF5
:104C80007FE700BF88428C4670B4054614460ED9B3
:104C90008B1898420BD242B1C2EB030C0146531E53
:104CA0001CF80320CA54013BFAD270BC70470F2A8B
:104CB00009D8002CF9D000231CF80320EA54013352
:104CC000A342F9D1F1E741EA000313F0030FF0D159
:104CD00094460C4603462568ACF1100C1D606568CF
:104CE0005D60A5689D60E5681034DD601033BCF13F
:104CF0000F0FF0D8103A4FEA121C0CF10105CCEB63
:104D00000C7C2D0102EB0C1601EB050C4519032E52
:104D10003446CED900235CF80320EA500433F21A5B
:104D2000032AF8D8043EB3085A1CC3EB83739200DD
:104D3000944406EB8304AD18BBE700BF704700BF87
:104D4000704700BF2DE9F04F914683B007460E46ED
:104D5000002900F03A81A1F1080809F10B04FFF7DE
:104D6000EDFF162CD8F804100B4600F2A08010229C
:104D7000002514464C4538BF45F00105002D40F094
:104D80002A8121F0030A9245A2BF4046554608F108
:104D9000080875DA46F2006308EB0A00C2F2000365
:104DA000D3F808E0864500F01A81D0F804C02CF052
:104DB000010B8344DBF804B01BF0010F7CD0AC4640
:104DC000284611F0010F40F09B8056F8081CC1EBFB
:104DD000080BDBF8045025F00305002800F0DD8007
:104DE000704500F01F8105EB0A030CEB03059542AB
:104DF000B8BF1D46C0F2D28081685B46C068AAF188
:104E00000402242A8160C86053F8081FDBF80C00F4
:104E10008160C86000F2D080132A9C4621D93146B7
:104E20000BF1100C51F8040BCBF8080070680E1D44
:104E30001B2ACBF80C0014D94868311D0BF1180C53
:104E4000CBF8100070680E1D242ACBF8140008D18E
:104E50004A680BF1200CCBF8182072680836CBF8A2
:104E60001C20314698466246584651F8043B42F8A9
:104E7000043B7368CCF804304B685360DBF80430B3
:104E8000C4EB050CBCF10F0F26D8421903F0010347
:104E900043EA05054560536843F001035360384613
:104EA0004546FFF74DFF284603B0BDE8F08F24F0DC
:104EB00007042246E50F5DE72CF0030C0CEB0A0516
:104EC0009542FFF67EAF82680B46C168404608F106
:104ED00008088A60D160D3E7011903F0010301EBF0
:104EE0000C0243EA04044CF0010344604B60384672
:104EF0005368083143F001035360FEF7B7FFCEE774
:104F000049463846FFF7EAFA0546002841D0D8F866
:104F10000430A0F1080223F0010141448A4200F06C
:104F2000D780AAF104023146242A78D8132A0346EE
:104F300021D9344654F8043B211D40F8043B031D9D
:104F4000D6F804C01B2AC5F804C014D9D4F804E06C
:104F50001C1D01F1040CC0F804E048680CF10401C8
:104F60005860231D242A06D1DCF8042062604A68B8
:104F700008315A60083308461A4650F8044B42F884
:104F8000044B496859604368536031463846FEF720
:104F90006DFF3846FFF7D4FE85E755449542AFDBF9
:104FA0005B46DBF80C00AAF1040253F8081F242A20
:104FB0008160C8607FF630AF184631469846FFF7EB
:104FC00061FE5846DBF804305AE7114603B0BDE8ED
:104FD000F04FFFF783BA0C2300253B6063E7DEF850
:104FE000045004F1100B25F0030C0CEB0A0058459B
:104FF000B8BF7046FFF6E5AE08EB0402011B41F0B6
:1050000001019A6051603846D8F80410354601F025
:1050100001031C43C8F80440FFF792FE43E7FFF783
:1050200031FEB2E7554404F11001AC448C45B5DBC8
:105030005D46DBF80C00AAF1040255F8081F242A8B
:105040008160C8604CD8132A284624D931460BF118
:10505000100051F804EBCBF808E0D6F804E00E1D80
:105060001B2ACBF80CE016D9D1F804E0311D0BF166
:105070001800CBF810E0D6F804E00E1D242ACBF877
:1050800014E008D14A680BF12000CBF818207268B0
:105090000836CBF81C203146024651F804EB42F8A2
:1050A00004EB76684660496851600BEB0402C4EB80
:1050B0000C0141F001019A6051603846DBF80410A0
:1050C00001F001031C43CBF80440FFF739FEEAE688
:1050D0005568404608F1080825F003055544CFE619
:1050E000314628460093CDF804C0FFF7CBFDDDF82C
:1050F00004C0009BD9E700BF38B546F68834C2F239
:1051000000040546084600232360FBF795FCB0F138
:10511000FF3F00D038BD2368002BFBD02B6038BD8B
:105120001F2970B50C46054620D8426CA2B152F832
:1051300021308BB1012B0DD0B3F1FF3F06D00846D3
:10514000002542F821509847284670BD1623036079
:10515000012070BD002070BD284600F087F822466F
:1051600001462846BDE8704000F082B8162303606F
:105170004FF0FF3070BD00BF46F20C530146C2F243
:1051800000031868CCE700BF38B5456C04460DB184
:10519000002038BD8021FFF7A1F9606428B12B46BB
:1051A00043510435802DFBD1F2E7013838BD00BFF3
:1051B00046F20C53C2F200031868E5E71F2910B548
:1051C000044682B012D8426CCAB152F8213002EBC8
:1051D000810283B1B3F1FF3F0FD0012B09D0084604
:1051E000002414609847204602B010BD4FF0FF30F5
:1051F000FAE70320F8E70120F6E70220F4E701913F
:10520000FFF7C2FF01990028F0D1626CDDE700BF13
:1052100046F20C530146C2F200031868CEE700BF05
:105220001F2910B5044682B007D8436C53B153F818
:10523000210043F8212002B010BD162303604FF077
:10524000FF30F8E701910092FFF79EFF0199009A65
:1052500008B9636CEBE74FF0FF30ECE746F20C5314
:105260000A46C2F2000301461868D9E7FBF792BB71
:1052700038B546F68834C2F20004054608461146A1
:1052800000232360FBF79AFBB0F1FF3F00D038BD4D
:105290002368002BFBD02B6038BD00BFB1F90E1086
:1052A00000F074B810B50C46B1F90E1000F012F908
:1052B000A389B0F1FF3F15BF606523F4805343F429
:1052C0008053A38118BFA38110BD00BF2DE9F04119
:1052D0001D468B890C461646074613F4807F06D080
:1052E0000223B1F90E10002200F0F4F8A38923F490
:1052F00080533846A3813246B4F90E102B46BDE8E0
:10530000F041FBF789BB00BF10B50C46B1F90E1098
:1053100000F0F6F8002803DB636D1B18636510BD11
:10532000A38923F48053A38110BD00BF20F00301A3
:1053300010F00300C0F1000051F8043B00F1040C30
:105340004FEACC0C6FF000021CBF22FA0CF21343A0
:105350004FF0010C4CEA0C2C4CEA0C4CA3EB0C0269
:1053600022EA030212EACC1204BF51F8043B0430D3
:10537000F4D013F0FF0F1FBF013013F47F4F013043
:1053800013F47F0F18BF0130704700BF38B546F6E1
:105390008834C2F200040546084600232360FBF768
:1053A000D5FAB0F1FF3F00D038BD2368002BFBD009
:1053B0002B6038BD70B505460C4600294BD0FEF772
:1053C0001DFC15B1AB69002B48D046F23043C2F248
:1053D00000039C4208BF6C680ED046F25043C2F2F4
:1053E00000039C4208BFAC6806D046F27043C2F28C
:1053F00000039C4208BFEC68B4F90C603EB3284639
:105400002146FEF73FFB236B06463BB12846216A47
:10541000984736EA200628BF4FF0FF36A38913F0DD
:10542000800F1FD1616B41B104F14403994202D056
:105430002846FEF71BFD00236363A16C21B12846BB
:10544000FEF714FD0023A3644FF00003A381FEF7D1
:10545000D7FB304670BD0E46304670BD2846FEF77D
:1054600081FCB2E728462169FEF700FDDAE700BFBC
:1054700046F20C530146C2F2000318689AE700BFD7
:1054800038B546F68834C2F200040546084611468F
:1054900000232360FBF76CFAB0F1FF3F00D038BD6A
:1054A0002368002BFBD02B6038BD00BF38B546F613
:1054B0008834C2F200040546084600232360FBF747
:1054C00071FAB0F1FF3F00D038BD2368002BFBD04C
:1054D0002B6038BD38B546F68834C2F20004054664
:1054E000084611461A4600232360FBF779FAB0F10B
:1054F000FF3F00D038BD2368002BFBD02B6038BDA8
:1055000038B546F68834C2F200040546084611460E
:105510001A4600232360FBF771FAB0F1FF3F00D079
:1055200038BD2368002BFBD02B6038BD4BB942B986
:10553000002908BF002802D04FF0FF31084600F0D4
:1055400037B882B0EC462DE9005000F005F8DDF8E0
:1055500004E002B00CBC7047F8B514461D46064680
:105560000F4600F0D9F900FB05F5A0FB042304FB6E
:105570000154E318B61A67EB0307069BC3E90067FB
:10558000F8BD00BFF8B514461D4606460F4600F0AC
:1055900011F800FB05F5A0FB042304FB0154E318FC
:1055A000B61A67EB0307069BC3E90067F8BD00BFA7
:1055B000704700BF00292DE9F04F85B0C0F2C880C8
:1055C0000026002BC0F2BF808946144605469B4644
:1055D000002B4AD18A4257D9B2FA82F353B1C3F1B0
:1055E000200001FA03F925FA00F812FA03F49D40AD
:1055F00048EA0909270C484639461FFA84FB00F09F
:105600000BFB39468246484600F034FC2A0C0BFB63
:105610000AF342EA01494B4509D919EB04090AF199
:10562000FF3A04D24B4584BF0AF1FF3AA144C3EBD1
:10563000090939464846ADB200F0EEFA39468046CF
:10564000484600F017FC0BFB08FB45EA0145AB455B
:1056500007D92D1908F1FF3803D2AB4588BF08F1EF
:10566000FF3848EA0A48002703E08B4257D9002751
:10567000B84642463B4616B1524263EB43031946D5
:10568000104605B0BDE8F08F22B91146012000F0A8
:10569000C3FA0446B4FA84F8B8F1000F5ED1C4EB43
:1056A0000908270C1FFA84F9012102913946404666
:1056B00000F0B2FA39468246404600F0DBFB4FEA82
:1056C000154809FB0AF348EA014B5B4509D91BEB76
:1056D000040B0AF1FF3A04D25B4584BF0AF1FF3A9A
:1056E000A344C3EB0B0B39465846ADB200F094FA15
:1056F00039468046584600F0BDFB09FB08F945EAEB
:105700000145A94507D92D1908F1FF3803D2A9454C
:1057100088BF08F1FF3848EA0A48029FA9E7B3FAB0
:1057200083F7002F68D18B422CBF4FF000094FF058
:10573000010982428CBF4C4649F00104002C96D0EE
:105740004FF0010895E7524263EB4303F6433BE712
:10575000404261EB41014FF0FF3632E704FA08F4B2
:10576000C8F1200735FA07F329FA07FA270C09FAD6
:1057700008FB3946504643EA0B02029200F04CFA0D
:1057800039461FFA84F98346504600F073FB0298AD
:1057900009FB0BF2030C43EA01439A4204D91B199B
:1057A0000BF1FF3BC0F0B1809B1A394618460193BC
:1057B00000F032FA019982460846394600F05AFB59
:1057C000DDF808C009FB0AF31FFA8CF040EA014239
:1057D000934208D912190AF1FF3A04D2934284BFC6
:1057E0000AF1FF3A121905FA08F54AEA0B4EC3EB23
:1057F0000208CDF808E059E7C7F1200003FA07FADC
:10580000C24035FA00F342EA0A0B21FA00F801FA25
:1058100007F940464FEA1B4A43EA09010291514603
:105820001FFA8BF2039200F0F7F951468146404689
:1058300000F020FB039BDDF808C003FB09F24FEAF0
:105840001C4014FA07F340EA0144A24204D914EBC5
:105850000B0409F1FF3952D3A41A51462046019393
:1058600000F0DAF951468046204600F003FB039829
:10587000DDF808C000FB08F21FFA8CF343EA014090
:10588000019B824204D910EB0B0008F1FF3830D3A2
:1058900048EA09481FFA83FC1B0C801A1FFA88FE8D
:1058A0004FEA184A0CFB0EF90CFB0AFC03FB0EC175
:1058B00003FB0AF201EB19418C4588BF02F58032E7
:1058C00002EB114E704510D31FFA89F905FA07F75C
:1058D00009EB014014BF0022012287422CBF0027A0
:1058E00002F00107002F3FF4C4AE08F1FF38002793
:1058F000BFE6824284BF584408F1FF38C8E7A2429D
:1059000084BF09F1FF395C44A6E79A4284BF0BF1DA
:10591000FF3B1B1948E700BF2DE9F04F0C4683B051
:105920008046164689461F4615468A46002B4BD1AF
:105930008A425CD9B2FA82F35BB1C3F1200001FA6A
:1059400003FA28FA00F216FA03F508FA03F842EA15
:105950000A0A2E0C50463146AFB200F05DF93146CE
:105960004FEA18448146504600F084FA07FB09F3D9
:1059700044EA014A534509D91AEB050A09F1FF39EE
:1059800004D2534584BF09F1FF39AA44C3EB0A0A84
:10599000314650461FFA88F800F03EF93146044679
:1059A000504600F067FA07FB04F748EA014847450C
:1059B00006D9013C18EB050802D2474588BF013CD7
:1059C00044EA094400265CE08B4258D8B3FA83F6D7
:1059D000002E5BD18B422CBF0022012285428CBF5E
:1059E000154642F00105002D49D0012449E022B9B5
:1059F0001146012000F010F90546B5FA85F6002E93
:105A000040F0BA80641B2F0C1FFA85FA0126394634
:105A1000204600F001F939464FEA184B81462046EE
:105A200000F028FA0AFB09F34BEA014B5B4509D960
:105A30001BEB050B09F1FF3904D25B4584BF09F16B
:105A4000FF39AB44C3EB0B0B394658461FFA88F8B5
:105A500000F0E2F839460446584600F00BFA0AFB1B
:105A600004FA48EA0148C24506D9013C18EB05088A
:105A700002D2C24588BF013C44EA094401E0002645
:105A800034463146204603B0BDE8F08FC6F1200011
:105A9000B34032FA00F721FA00FB1F4314FA06F272
:105AA00028FA00F158464FEA174A1143009151462F
:105AB000BBB2019300F0B0F85146B540814658465C
:105AC00000F0D8F9019C009804FB09F34FEA104C50
:105AD0004CEA014B5B4505D91BEB070B09F1FF397C
